:0408000041EF04F0D0
:10080800E1CF0DF0E2CF0EF0D9CF0FF06BED0DF088
:10081800D8CF04F0E8CF05F0E0CF06F0F2A001D081
:1008280001D00BD081502AEC1BF00009D8B401D0BC
:1008380001D002D0010E416EF2909EA001D001D0ED
:1008480015D0E00ECF6E010E0001716FF007D8A031
:10085800F107F151F011D8A401D001D006D0010E52
:10086800456E000EF16F7A0EF06F9E9006C0E0FFA5
:0E08780005C0E8FF04C0D8FF1000EAEF10F042
:100D000020444154413A200049443A200000E8CFB1
:100D10002FF0246607D121C01DF022C01EF023C091
:100D20001FF02F50D9EF10F0090E156E2F50D9EC8F
:100D30001AF021D9B6EC14F02F502EEF11F0000E5E
:100D4000166EC10E156E186A176AD5D021506AEC5E
:100D50001AF0306E24C015F0225055EC16F0316EAA
:100D600031BE120030C015F0315038EF1BF024C0F6
:100D700015F0225055EC16F0316E315060EC1BF03E
:100D8000306E31BE0BD01F0E156E2F50D9EC1AF0FD
:100D900030C015F02F50A3EC1AF005D0080E156ED8
:100DA0002F50D9EC1AF0E7D8B6EF14F021506AECC6
:100DB0001AF0306E24C015F0225055EC16F0316E4A
:100DC00031BE12003150800A780FD8B0120030C006
:100DD00017F031C018F0C10EBFEF18F021506AECC7
:100DE0001AF0306E24C015F0225055EC16F0316E1A
:100DF00031BE12003150800A780FD8B0120030C0D6
:100E000017F031C018F0C10E2AEF19F024C015F008
:100E1000225055EC16F0316E316603D0C90E46EC07
:100E20001BF031BE120031C025F09AD8D8B4255C31
:100E300013E22E6A2E500608156E21502FEC16F084
:100E4000256E3150C90F2E24D96EDA6A25C0DFFF16
:100E50002E2A060E2E64EED73150800A780FD8B0B5
:100E6000120031C025F07CD8D8B4255CD8A012007F
:100E70002D6A15D031500008256E2D50255C070FC6
:100E80002C6E2CC015F021502FEC16F0256E315031
:100E9000C90F2D24D96EDA6A25C0DFFF2D2A31C093
:100EA00025F0266A25BE260625500808276E2650FE
:100EB000D8A0E82A0008286E2DC029F02A6A2A50F6
:100EC000800A2B6E2750295C2850800A2B58D2E3C9
:100ED000C90E156E176A080E166EC10E10EF19F0C6
:100EE00021506AEC1AF0306E000E166EC10E156EAF
:100EF00030C017F0186A1A6A080E196ED5EF19F08B
:100F000021506AEC1AF0306E30C017F0C10E85EF38
:100F100018F021506AEC1AF0306E30C017F0C10E94
:100F2000A2EF18F02350020A01E1FED6070A01E100
:100F300006D71B0A01E10AD7010A01E118D73F0AC7
:100F400001E134D7010A01E149D7030A01E15ED783
:100F5000010AC6E0070AD4E0010AD8A41200D9D7D2
:100F6000266A25BE2606070E2526000E26222650B6
:100F7000800A800F080C24C015F02250D96EDA6A5E
:100F8000DF50166E2F501200E8CF23F01D681E6848
:100F9000080E1F6E000E206E01D0040040500DE0C0
:100FA000FF0E1D061E221F2220221D28D8B41E2837
:100FB000D8B41F28D8B42028F0E1FF0E3C24156EC9
:100FC000166AFF0E16223D5015181610D8B41200DE
:100FD0003D501D0A03E13C6601D012001C0E3D6429
:100FE00002D0226A02D03D28226EC5D8080EDF64E6
:100FF00008D02350D96EDA6A0C0ED926DA6A080EA8
:10100000DF6EB9D822500E0DCE0EF324E16E020E23
:10101000F420E26EDFCFE7FF2350D96EDA6A0E0EBE
:10102000D926DA6ADF50156E15B223D02250B2D815
:10103000BF0EDF16216A18D023502124D96EDA6A38
:10104000040ED926DA6A22500E0DCF0EF324156E47
:10105000020EF420166E21501524E16E000E1620AB
:10106000E26EDFCFE7FF212A86D8DF50215C05E260
:10107000E3D722508FD8400EDF122350D96EDA6AA0
:1010800022500E0DCD0EF324E16E020EF420E26E1E
:10109000DFCFE7FF22500E0DCC0EF324D96E020EE7
:1010A0005CD816C015F017C016F018C017F0186AF3
:1010B000155068D852D80E0E01D074D8E82EFDD73E
:1010C000E00E15162350E16EE26AE6CF19F0E6CF86
:1010D0001AF0E6CF1BF0E6CF1CF0110E05D0D89029
:1010E0001C321B321A321932E82EF9D71950030B71
:1010F0001510DF6E22500E0DCA0EF324D96E020EAB
:101100002CD8160E01D04ED8E82EFDD715503AD85F
:10111000F420DA6E080EDF1222500E0DC90EF324F1
:10112000D96E020EF420DA6E2350E16EE26A0D0EE3
:10113000E126E26AE750030BDF6E22C03DF00D01AD
:10114000FC511C0B1C0A04E0A488010E406E010C2B
:10115000FAADFAD7FABF1200F7D7F420DA6E2350AF
:10116000E16EE26AE6CF15F0E6CF16F0E6CF17F0B3
:10117000E6CF18F012002350D96EDA6A0C0ED92689
:10118000DA6A1200DF6E22500E0DCB0EF324D96EF8
:10119000020E12000E0DCE0EF324D96E020EF420B4
:1011A000DA6E1200D8901832173216321532120049
:1011B00000006400660069006B006E007000730040
:1011C000750078007A007C007E0080008200840038
:1011D000860088008A008C008E00900092009400A7
:1011E000960098009A009C009E00A000A200A40017
:1011F000A600A800AA00AC00AE00B000B200B40087
:10120000B700BA00BD00C000C300C600C900CC00D2
:10121000CF00D200D500D800DB00DE00E100E40002
:10122000E700EA00ED00F000F300F600F900FC0032
:10123000FF000201050108010B010E011201160158
:101240001A011E01220126012A012E013201360156
:101250003A013E01420146014A014E015201560146
:101260005A015E01630168016D01720177017C0121
:10127000810186018B01900195019A019F01A401D2
:10128000A901AE01B301B801BD01C201C801CE017F
:10129000D401DA01E001E601EC01F201F801FE01FE
:1012A00004020A02100216021C02220228022E0266
:1012B00034023A0242024A0252025A0262026A02AC
:1012C00072027A0282028A0294029E02A802B2028A
:1012D000BC02C602D002DA02E402EE02FA020603FF
:1012E00012031E032A03360342034E035A03660306
:1012F0007403820390039E03AC03BA03C803D603AE
:10130000E403F203020412042204320442045204ED
:101310006204720482049204A404B604C804DA04C9
:10132000EC04FE04100522053405460558056A053F
:101330007C058E05A005B205C405D605E805FA05AD
:101340000C061E06300642065406660678068A0615
:101350009C06AE06C006D206E406F60608071A0783
:101360002C073E0750076207740786079807AA07ED
:10137000BC07CE07E007F2070408160828083A0859
:101380004C085E08700882089408A608B808CA08C5
:10139000E308FC0815092E09470960097909920933
:1013A000AB09C409BE0AB80BB20CAC0DA60EFF0FF8
:1013B0000001E86BE76B0400D1EC1BF0000901E1D0
:1013C00085D07CEC0BF020EE8BF00F0EEECFDEFF25
:1013D000E82EFCD7040000018B0EFCEC1AF000098B
:1013E00003E08B0E7BEF16F08B0EF5EC18F0ED6F33
:1013F0008B0EDAEC18F0E86FEDC016F0E8C017F0CD
:10140000D10E35EC12F0000961E08B0E7DEC1AF084
:10141000E76FED51C0EC1BF0000933E0E96BEA6BBC
:1014200004000001E951030DF350610FD96EDA6A2F
:10143000DECF32F0DDCF33F001D81CD00500FA6EDC
:101440003250FD6E3350FE6EFF6AFA508B0E216EE5
:10145000E951030DF350600FD96EDA6ADF50156E53
:10146000D10E76EC19F0226EE7C023F0E8C024F02C
:101470009A0E12000001E94BEA2BEA51E9111CE136
:10148000CFD7ED518DEC17F001D816D00500FA6ECC
:101490001550FD6E1650FE6EFF6AFA508B0E216ECF
:1014A000EDC015F0D10E76EC19F0226EE7C023F0F6
:1014B000E8C024F09A0E12000001A65107E09A0E2F
:1014C000C4EC07F000019A0E49EC18F00001EB6B38
:1014D000EC6B716703D0E56BE66B04D071C0E5F08F
:1014E000E66B7107EB51030DF350640FD96EDA6AA6
:1014F000DECF32F0DDCF33F001D818D00500FA6E20
:101500003250FD6E3350FE6EFF6AFA50EB51030D00
:10151000F350630FD96EDA6ADF50156ED10E76EC98
:1015200019F0266EE5C027F09A0E120000090BE0B4
:101530000001A65108E004009A0EC4EC07F0000177
:101540009A0E49EC18F00001EB4BEC2BEC51EB112F
:10155000D8A41200BED7E8CF22F051D00F010F0E51
:10156000246E000E4AD00F010F0E246E040E45D0DB
:101570000F010F0E246E080E40D00F010F0E246EC7
:101580000C0E3BD00F010F0E246E100E36D00F0143
:101590000F0E246E140E31D00D010D0E246E600E50
:1015A0002CD00D010D0E246E640E27D00D010D0EF2
:1015B000246E680E22D00D010D0E246E700E1DD00B
:1015C0000D010D0E246E740E18D00D010D0E246E3B
:1015D000780E13D00D010D0E246E800E0ED00D016D
:1015E0000D0E246E840E09D00D010D0E246E880E92
:1015F00004D00D010D0E246E900E236E20D02250CB
:10160000ADE0010AB0E0030AB3E0010AB6E0070A60
:10161000B9E0010ABCE0030ABFE0010AC2E00F0A18
:10162000C5E0010AC8E0030ACBE0010ACEE0070AE0
:10163000D1E0010AD4E0030AD7E0010ADAE0150E8E
:10164000196E15C01AF016C01BF017C01CF018C098
:101650001DF0196701D007D01D341D321C321B321A
:101660001A32192EF6D71A5023C0D9FF24C0DAFF38
:10167000DF6E15C019F016C01AF017C01BF018C0A5
:101680001CF0110E05D0D8901C321B321A321932C0
:10169000E82EF9D7030E19160D0E1D6E15C01EF09B
:1016A00016C01FF017C020F018C021F01D6701D030
:1016B00007D02134213220321F321E321D2EF6D7A0
:1016C0001E50E00B19100809234A242A23C0D9FF11
:1016D00024C0DAFFDF6E234A242A23C0D9FF24C0A6
:1016E000DAFF16C0DFFF234A242A23C0D9FF24C013
:1016F000DAFF15C0DFFF12001C0E3A6403D00001B0
:10170000D56B03D03A280001D56FD5510E0D2A0EA6
:10171000F324D96E010EF420DA6EDF500F0BE26F66
:10172000D5510E0D250EF324D96E010EF420DA6E7C
:10173000DF50246E24A602D0E4831FD0E493D46B40
:1017400019D0D5510E0D2B0EF324246E010EF4206A
:10175000256ED4512424D96E000E2520DA6ED4C013
:1017600026F0040E26262650D60FE16EE26ADFCF61
:10177000E7FFD42BE251D45DE4E3D5510E0D260EE4
:10178000F324D96E010EF420DA6EDF50246E24C0EB
:1017900025F0266AD89025362636D8902536263666
:1017A000D8902536263625C0D6F026C0D7F0D86B7F
:1017B000D96BD55165D8246E050E256ED89024328C
:1017C000252EFCD72450D613D5515AD8246E24A6E2
:1017D00048D0E481D6C024F0D7C025F0D8C026F088
:1017E000D9C027F0020ED890243625362636273663
:1017F000E82EF9D7D55144D8030B2410D66F2550C5
:10180000D76F2650D86F2750D96F100ED890D63783
:10181000D737D837D937E82EF9D7D5510E0D280E3E
:10182000F324D96E010EF420DA6EDF50256E246A9F
:101830002450266E2550276E286A296A2650D61312
:101840002750D7132850D8132950D913D5510E0D2E
:10185000290EF324D96E010EF420DA6EDF50D61370
:1018600001D0E491D5C03AF020EEE4F000EE23F090
:101870000F0EDDCFEDFFE82EFCD7E92AEA22120099
:101880000E0D270EF324D96E010EF420DA6EDF5010
:101890001200E8CF1FF0000E1510196E000E161082
:1018A0001A6E000E17101B6E040E18101C6E1F50BF
:1018B000D96EDA6A19C0DEFF1AC0DEFF1BC0DEFF78
:1018C0001CC0DDFFD906D9061F50D96EDA6A0E0E8C
:1018D000D926DA6A010EDF126AD8DF6A1D6A1E6A2B
:1018E00066D8DF50196E1F501924D96EDA6A040EBB
:1018F000D926DA6ADF6A5BD8DF2A1D4A1E2A080E5B
:101900001D5C000E1E58ECE31F50D96EDA6A040EFF
:10191000D926DA6A69C0DFFF1F50D96EDA6A050E70
:10192000D926DA6A6AC0DFFF1F50D96EDA6A060E5E
:10193000D926DA6A6FC0DFFF1F50D96EDA6A070E48
:10194000D926DA6A42C0DFFF1F50D96EDA6A080E64
:10195000D926DA6A6CC019F0F00E19166B510F0B0C
:101960001910DF6E1F50D96EDA6A090ED926DA6AAD
:101970006EC019F0D8901932D8901932070E191686
:101980006D51F00B1910DF6E1F50D96EDA6A0A0E16
:10199000D926DA6A67510F0BDF6E1F50D96EDA6AEB
:1019A0000B0ED926DA6A68510F0BDF6E12001F503A
:1019B000D96EDA6A0C0ED926DA6A1200B2EC12F08D
:1019C0004CEC14F014EC14F00D0E166E0E0E156E99
:1019D000050EBEEC19F02F0E166E9A0E156E050E42
:1019E000EBEC19F0A90ED36F71EC11F019C036F0C1
:1019F0001AC037F01BC038F01CC039F0DEEC1BF009
:101A00000001D10E6DEC17F0F28EF28CD08EA2ECAC
:101A10001BF0AAEC1BF0E7EC1BF0D18004008FEC6C
:101A20001BF0000903E00AEC17F020D084EC1BF057
:101A30000009D8B441EF04F0166A156A020E176E59
:101A400067EC18F00400020E496E010E0001666F8B
:101A5000F1EC1BF0D10E74EC12F0B3EC11F0B3EC1E
:101A600011F0B3EC11F0040090EC1AF00400EDEC6E
:101A70001BF0356E3504D8B4D4EC0EF0EDEC1BF051
:101A8000020AD8B4D8EC09F0EDEC1BF0030A0CE123
:101A90000400E80E156E030E166E000E176A186A23
:101AA0002BEC17F0B2EC1BF0EDEC1BF0040AD8B4F1
:101AB00066EC13F0415003E0416AE8EC16F03E504A
:101AC000D5E03E6AEDEC1BF0020AD8B499EC1BF0AD
:101AD00001EC1AF0CBD70600DACF10F0F3CF11F0FB
:101AE000F4CF12F0A450A3140009D8B401D001D04F
:101AF0005FD077CF13F0A4AE01D001D002D0A49E66
:101B000055D0A4AA01D001D008D0A3AA01D001D0F9
:101B100004D0A49A010E3E6E49D0A4A201D001D0F7
:101B200010D0A3A201D001D00CD06ECF0CF01F0EAC
:101B30000C167750E00B0C10776EA0EC16F0A49208
:101B400035D0A4A801D001D027D0A3A801D001D0BE
:101B500023D0EBEC1AF0146E1450D8B401D001D09D
:101B600003D01450EAEC14F017EC1AF0146E145071
:101B7000D8B401D001D00ED07750E00B1410776E9E
:101B8000DFEC15F00009D8B401D001D003D0145017
:101B9000EAEC14F0A4980AD0A4AC01D001D006D08D
:101BA000A3AC01D001D002D0A49C00D013C077FF19
:101BB000406A12C0F4FF11C0F3FF10C0DAFF0FC07B
:101BC000D9FF0EC0E2FF0DC0E1FF1100E8CF22F007
:101BD000000E15101A6E000E16101B6E000E171058
:101BE0001C6E080E18101D6E2250D96EDA6A1AC0CB
:101BF000DEFF1BC0DEFF1CC0DEFF1DC0DDFFD906FF
:101C0000D9062250D96EDA6A0E0ED926DA6A010E8A
:101C1000DF12206A216A2250D96EDA6A040ED926B0
:101C2000DA6ADBEC1BF0DF6E204A212A236A246A81
:101C30001E6A1F6A22D02350030D19507BEC15F049
:101C4000DF501E24D96EDA6ADF5015E12350030DF0
:101C50001950F324D96EDA6A22502024E16EE26A28
:101C6000040EE126E26ADFCFE7FF204A212A205056
:101C7000070A211014E01E4A1F2A2350030D195091
:101C8000F324D96EDA6AD92ADA6ADF501A6E1AC0DA
:101C90001BF01C6A1B501E5C1C501F58CCE3234ACF
:101CA000242A24502310C4E02250D96EDA6A0C0E84
:101CB000D926DA6A20C0DFFF1200E8CF1DF0FF0E40
:101CC0004424166E176AFF0E172267D8DF501618C5
:101CD000171005E062D8FF0EDF62FE0C010C1D50EC
:101CE00054D8020E165C01E2FF0C1A6A010E196E3E
:101CF0001E6A1F6A1B6A1C6A30D01E50030D1550E5
:101D00007BEC15F0DF501B24D96EDA6ADF5023E13B
:101D10001D501924D96EDA6A040ED926DA6A1E50CB
:101D2000030D1550F324E16EE26A020EE126E26A29
:101D3000E7501B24E16EE26ADFCFE7FF194A1A2A57
:101D40001D5023D816C017F0186A1750195C185088
:101D50001A5801E3000C1B4A1C2A1E50030D155093
:101D6000F324D96EDA6AD92ADA6ADF50166E16C001
:101D700017F0186A17501B5C18501C58BEE31E4A17
:101D80001F2A1F501E10B6E0FD0CD96EDA6A0C0E29
:101D9000D926DA6ADF50166E12001D50D96EDA6A43
:101DA000040ED926DA6A1200DBEC13F0455004E089
:101DB000456A9A0EC4EC07F0D1EC1BF00009D8B4C8
:101DC0001200E9EC1BF0EBEC1BF07CEC0BF020EECE
:101DD0008BF00F0EEECFDEFFE82EFCD78B0EFCEC67
:101DE0001AF0000905E08B0E7BEC16F0E7EF1BF014
:101DF000385000018D63E7EF1BF037508C63E7EF3D
:101E00001BF036508B63E7EF1BF0D10E156E8B0E77
:101E10005DEC0EF0346E346621D0D10EB2EC15F0CC
:101E200000090DE036C015F037C016F038C017F0C5
:101E300039C018F09A0E1DEC15F0E7EF1BF036C014
:101E400015F037C016F038C017F039C018F0D10EB1
:101E5000196E9A0EE6EC0DF0E7EF1BF03404C6E1C4
:101E6000D10EB2EC15F00009C1E0D10E2BEC13F04D
:101E7000B3EC11F0B3EC11F0B3EC11F053EC1BF038
:101E80009A0E49EC18F0E7EF1BF0E8CF22F00BD0E8
:101E90000F010F0E246E180E04D00F010F0E246ECA
:101EA0001C0E236E04D02250F3E0010AF6E0150E5A
:101EB000196E15C01AF016C01BF017C01CF018C020
:101EC0001DF0196701D007D01D341D321C321B32A2
:101ED0001A32192EF6D71A5023C0D9FF24C0DAFFC0
:101EE000DF6E15C019F016C01AF017C01BF018C02D
:101EF0001CF0110E05D0D8901C321B321A32193248
:101F0000E82EF9D7030E19160D0E1D6E15C01EF022
:101F100016C01FF017C020F018C021F01D6701D0B7
:101F200007D02134213220321F321E321D2EF6D727
:101F30001E50E00B19100809234A242A23C0D9FF98
:101F400024C0DAFFDF6E234A242A23C0D9FF24C02D
:101F5000DAFF16C0DFFF234A242A23C0D9FF24C09A
:101F6000DAFF15C0DFFF1200E8CF22F0246A256AED
:101F700035D0245060EC1BF0236E40D8D92ADA6AA1
:101F80002350DF6207D02450030D1E507BEC15F068
:101F9000DF5022E12450030D1E507BEC15F0010EA2
:101FA000DF6E2CD8D92ADA6A23C0DFFF1E0E156E29
:101FB0002250D9EC1AF023C015F02250A3EC1AF0ED
:101FC0001DD8DF50156E1D50D96EDA6ADF50166EBF
:101FD0002250B6EC14F0010C244A252A1D50D96E6B
:101FE000DA6AD92ADA6ADF501F6E1FC020F0216A30
:101FF0002050245C21502558BCE3000C2450030DD4
:102000001E50F324D96EDA6A1200E8CF1FF0800E5A
:102010002BEC18F01F5008E0140E156E000E166A17
:10202000176A186A2BEC17F0430E706EBF0E716EB4
:10203000870E726E100E736E400E776E606A0F011F
:10204000506B0E01206B306B406B506B606B706B94
:10205000C00E0D01F86F3F0ED46FD56B100EE06F00
:10206000230EE16F450EE26FE36BE46BE56BE66B0D
:10207000E76BF06B040EF16FF26BF26B0F011987D7
:102080001D870187058709870D8711871587A56833
:10209000000E2BEC18F0220EA36EA3880D01FC6B32
:1020A000FA69FA9DFA9FA46A1200E8CF1DF01E6A31
:1020B000180E216E3CD03FD81FC0DFFF212A37D039
:1020C0001D501E24D96EDA6ADF500CEC1BF0151C73
:1020D0001F6E161C206E1E2A2ED81FC01AF020C09C
:1020E0001BF0040E1C6E1B341B321A321C2EFBD745
:1020F0001A50DF6E212A1FD81F38F00BDF6E1D50DB
:102100001E24D96EDA6ADF500CEC1BF0151C1F6E12
:10211000161C206E1E2A20C01AF01B6A1ABE1B68ED
:102120000F0E1A1608D81A50DF12212AC4D7070E2C
:102130001E64C6D7070C21501824D96E000E192032
:10214000DA6E120036D0000E166EC10E156E186AC9
:10215000176A04D01D506AEC1AF010D01A6A080EE3
:10216000196ED5EF19F01D506AEC1AF013D01D50FE
:102170006AEC1AF018D01D506AEC1AF0206E000EAE
:10218000166EC10E156E20C017F0186AE7D71D50E5
:102190006AEC1AF0206E20C017F0C10E85EF18F01F
:1021A0001D506AEC1AF0206E20C017F0C10EA2EF8D
:1021B00018F01F50050AC7E01B0ACCE03E0AD3E026
:1021C000010AD5E0020AD7E0070AE1E0010AD8A433
:1021D0001200E6D701EE25F013EE48F0EE6AE55066
:1021E000E150FCE1E250FAE100EE60F0740EEE6ABC
:1021F000E806FDE100EE36F0130EEE6AE806FDE1BA
:10220000B00EF66E110EF76E000EF86E04EE6DF065
:1022100012EE00F00900F5CFEEFFE550E150FAE1D3
:10222000E250F8E18C0EF66E370EF76E000EF86E87
:1022300000EEEEF010EE0BF00900F5CFEEFFE550EA
:10224000E150FAE1E60EF66E370EF76E000EF86E0C
:102250000900F5CF49F00001DEEF0CF0E8CF1DF0EA
:1022600044EC19F019C01BF01AC01CF01D50D96EB7
:10227000DA6A050E2ED8060ED926DA6A1C50DF6EF1
:102280008EEC19F019C01BF01AC01CF01D50D96E4D
:10229000DA6A070E1ED8080ED926DA6A1C50DF6EDD
:1022A0001D50D96EDA6A090ED926DA6A75CFDFFFBA
:1022B0001D50D96EDA6A0A0ED926DA6A76CFDFFFA8
:1022C0001D50D96EDA6A0C0ED926DA6A060EDF26A0
:1022D000060CD926DA6A1BC0DFFF1D50D96EDA6AF8
:1022E0001200166A010E156E41EC1AF01D6E1DC02B
:1022F0001EF01F6A206A216A1FC021F01EC020F054
:102300001F6A1E6A1EC022F01FC023F020C024F0E6
:1023100021C025F0166A020E156E41EC1AF01D6EF2
:102320001DC01EF01F6A206A216A20C021F01FC054
:1023300020F01EC01FF01E6A1E5022121F502312D2
:102340002050241221502512166A030E156E41ECFE
:102350001AF0221222C019F023C01AF024C01BF078
:1023600025C01CF012001568770E166EC00E176E91
:102370001F0E186E000E45EC0FF0156A166A176AEC
:10238000100E186E010E45EC0FF01568070E166E54
:10239000000E176A186AABEC0AF0156A166A176A1B
:1023A000100E186E050EABEC0AF015682F0E166EA7
:1023B000176A186A010EABEC0AF015682F0E166E3C
:1023C000176A186A020EABEC0AF015682F0E166E2B
:1023D000176A186A030EABEC0AF015682F0E166E1A
:1023E000176A186A040EABEF0AF0156816681768CA
:1023F0000F0E186E000E45EC0FF015681668176882
:10240000100E186E010E45EC0FF022D8000EABEC4A
:102410000AF01ED8010EABEC0AF01AD8020EABEC93
:102420000AF016D8030EABEC0AF012D8040EABEC8F
:102430000AF0000E2510156E000E2610166E000E06
:102440002710176E100E2810186E050EABEF0AF04D
:10245000000E2510156E000E2610166E000E2710A9
:10246000176E090E2810186E1200E8CF1DF01666C0
:1024700001D0010C1E6A1F6A1E50030D1D50F3246B
:10248000D96EDA6A1650DF6229D01B6A1C6A14D032
:102490001750BAEC1BF00009ECE11E50030D1D5063
:1024A0007BEC15F0DF501B24D96EDA6A1750DF621F
:1024B00001D0010C1B4A1C2A1E50030D1D50F32491
:1024C000D96EDA6AD92ADA6ADF50186E18C019F0A4
:1024D0001A6A19501B5C1A501C58DAE31E4A1F2A4C
:1024E0001F501E10C9E0000CE8CF2EF0080E196E28
:1024F000220EEDEC17F02C6A2D6A316A326A2F6ACF
:10250000306A17D02C50220FD96EDA6A3150030D81
:102510002E50F324E16EE26A020EE126E26AE750F1
:102520002F24E16EE26ADFCFE7FF2C4A2D2A2F4AE3
:10253000302A3150030D2E50F324D96EDA6AD92A8D
:10254000DA6ADF501F6E1FC020F0216A20502F5C16
:1025500021503058D7E3314A322A32503110D8A4B2
:102560001200CDD737D801D00400A6AE09D0190685
:102570002BD8D8B41A28D8B41B28D8B41C28F4E116
:1025800029D801D00400A6AC09D019061DD8D8B4AA
:102590001A28D8B41B28D8B41C28F4E11BD801D0C1
:1025A0000400000E166A156A41EC1AF00009D8B44E
:1025B0001200190609D8D8B41A28D8B41B28D8B4E0
:1025C0001C28D8B41200ECD7000E1A5A1B5A1C5AF9
:1025D0001928120019681A681B6A1C6A1200E8CFD1
:1025E0001DF0000E1510196E000E16101A6E000E5A
:1025F00017101B6E020E18101C6E1D50D96EDA6A71
:1026000019C0DEFF1AC0DEFF1BC0DEFF1CC0DDFFED
:10261000D906D9061D50D96EDA6A0E0ED926DA6AA5
:10262000010EDF121D50D96EDA6A0C0ED926DA6A55
:10263000020EDF6E1D50D96EDA6A040ED926DA6AF0
:1026400046C0DFFF1D50D96EDA6A050ED926DA6A58
:1026500070C0DFFF1200E8CF2FF02C6A080E2B6E3F
:102660002D6A2E6A326A336A306A316A13D0325068
:10267000030D2F507BEC15F0DF503024D96EDA6A51
:102680002D50230FE16EE26ADFCFE7FF2D4A2E2A9D
:10269000304A312A3250030D2F50F324D96EDA6AB2
:1026A000D92ADA6ADF50206E20C021F0226A215038
:1026B000305C22503158DBE3324A332A3350321037
:1026C000D3E02BC01AF0230E0CEF18F00400455095
:1026D00014E0456A36C015F037C016F038C017F060
:1026E00039C018F000019A0E49EC0CF09A0EC4ECB7
:1026F00007F000019A0E49EC18F0D1EC1BF000092C
:102700001FE07CEC0BF020EE8BF00F0EEECFDEFF27
:10271000E82EFCD7040000018B0EFCEC1AF0000937
:10272000D8B412008B0E5DEC19F0030AD8A4120085
:102730008B0E4CEC17F00009D8A46DEC1BF01200C6
:1027400012001D6A1E6A1E502FD81E50B10FD96E7E
:10275000DA6ADF501C1803E0010E1D6E04D01E2A39
:10276000070E1E64F0D71D501DE0722BDC0E726543
:10277000DC0C726B1F6A1F5017D81F50B10FD96E37
:10278000DA6ADF501C1809E01F50C10FD96EDA6AEF
:10279000DF501A6E1F50C7EC1AF01F2A070E1F6475
:1027A000EAD7070C726B12000001C10FD96EDA6A0A
:1027B000DF501C6E12000001F651D8B4120036C072
:1027C00025F037C026F038C027F039C028F0F5ECE6
:1027D00011F036C025F037C026F038C027F039C0D8
:1027E00028F0F5EC11F036C025F037C026F038C0DF
:1027F00027F039C028F0F5EC11F0EFEC1BF00001E8
:10280000D10E50EC15F036C015F037C016F038C0B8
:1028100017F039C018F0D10E196E9A0EE6EC0DF0D3
:10282000E7EC1BF0F66B12000F0EC112BE0E9416F1
:102830008B808B9C000E156A166A08EC16F000015E
:10284000B90E46EC1BF0C10E46EC1BF0B10E46EC87
:102850001BF0460403E04650020A03E1ADEC17F01A
:1028600018D0226A2250B10FD96EDA6ADF6822507E
:10287000C10FE16EE26ADFCFE7FF2250B90FD96ED8
:10288000DA6AE7CFDFFF222A070E2264EBD72CECAF
:102890001AF0B90EC5EF16F044EC19F019C01BF090
:1028A0001AC01CF08EEC19F019C01DF01AC01EF0F1
:1028B000D0CF70F01B4A1C2AD0B612D01D4A1E2A57
:1028C000166A070E156E1DC017F067EC18F0166A31
:1028D000060E156E1E50176E67EC18F0010E03D031
:1028E000030ED0A8020E466E166A050E156E1BC0AA
:1028F00017F067EC18F0166A040E156E1C50176E70
:1029000067EF18F0236A246A2450C10FD96EDA6A7F
:10291000DF50226E2450B90FD96EDA6ADF50225C84
:1029200008E22450B90FD96EDA6ADF06010E236E71
:1029300013D02450B90FD96EDA6ADF50226E2450BA
:10294000C10FD96EDA6ADF50225C06E22450B90F5B
:10295000D96EDA6ADF2AEAD7242A070E2464D4D78C
:102960002350D8B41200B90EC5EF16F0E8CF1CF012
:102970001C50D96EDA6ADE6AF80EDE6E3F0EDE6E2D
:10298000DD6A15C017F07F0E171617C018F0196A08
:102990001A6A1B6A040ED890183619361A361B3676
:1029A000E82EF9D71C50D96EDA6A1850DE12195089
:1029B000DE121A50DE121B50DD121C50D96EDA6A7C
:1029C00016500F0BDE12000EDE12DE12DD12DD528B
:1029D000DD52000CE8CF07F01BD00D01FC9912006E
:1029E0000D01FC9712000D01FC9512000D01FA95E6
:1029F00012000D01FA9712000D01FA9912000D0153
:102A0000FA9B12000D01FA9D12000D01FA9F1200AF
:102A10000750030AE8E0070AE3E0010ADEE0170ACC
:102A2000E5E0010AE6E0070AE7E0010AE8E0030A58
:102A3000E9E0010AD8A41200E8D7E8CF1DF0000EA3
:102A40001510196E000E16101A6E000E17101B6E60
:102A5000080E18101C6E1D50D96EDA6A19C0DEFF00
:102A60001AC0DEFF1BC0DEFF1CC0DDFFD906D90681
:102A70001D50D96EDA6A0E0ED926DA6A010EDF12FF
:102A80001D50D96EDA6A040ED926DA6ADF681D5045
:102A9000D96EDA6A0C0ED926DA6A010EDF6E010CE5
:102AA000E8CF18F01B6A1C6A196A1A6A0BD01B500F
:102AB000030D185020D8DF501924D96EDA6ADF6A66
:102AC000194A1A2A1B50030D1850F324D96EDA6ADA
:102AD000D92ADA6ADF50156E15C016F0176A16503B
:102AE000195C17501A58E3E31B4A1C2A1C501B1090
:102AF000D8A41200D9D7F324D96EDA6A020ED926E7
:102B0000DA6A1200E8CF19F01A6A1B6A1AD0195053
:102B1000D96EDA6A020ED926DA6ADF501A24D96E23
:102B2000DA6A1A50030D1550F324E16EE26ADFCF22
:102B3000E7FF1A50030D15507BEC15F0DF6A1A4AB7
:102B40001B2A1950D96EDA6AD92ADA6ADF50166E52
:102B500016C017F0186A17501A5C18501B58D8B0D6
:102B60001200D5D7E8CF18F01B6A1C6A196A1A6AD6
:102B70000ED01B50030D18507BEC15F0DF501924BC
:102B8000D96EDA6ADF5001E1000C194A1A2A1B508B
:102B9000030D1850F324D96EDA6AD92ADA6ADF50A5
:102BA000156E15C016F0176A1650195C17501A5892
:102BB000E0E31B4A1C2A1C501B10D8E0010C3D50BE
:102BC0003C1825E03C2A1D0E3C6401D03C6A0B6A8F
:102BD0003C500E0DC90EF324076E020EF420086E51
:102BE0000B500724D96E000E0820DA6E0B50096EC8
:102BF0000A6A600E0924E16E0F0E0A20E26EDFCF32
:102C0000E7FF0B2A0D0E0B64E3D76086000C010C66
:102C1000E8CF17F03F0EC716C66A1750C6121650F7
:102C2000C71205D0C78C11D0C78CC6880ED01550DE
:102C3000F9E0020AF9E0010AF8E007D09486928AE6
:102C40000AD0948608D0949606D01750040AF6E06D
:102C5000010AF7E0F8D79488949AC68A1200E8CF60
:102C60001CF01C50D96EDA6A0C0ED926DA6ADF50D5
:102C7000166E16C017F0186A15C019F01A6A192ACC
:102C8000000E1A221A50800A1B6E1750195C185039
:102C9000800A1B5809E21C501524D96EDA6A050E09
:102CA000D926DA6ADF501200000CE8CF19F01A6A50
:102CB0001B6A11D01950D96EDA6A020ED926DA6A67
:102CC000DF501A24D96EDA6A1550DF6202D01A502A
:102CD00012001A4A1B2A1950D96EDA6AD92ADA6AFE
:102CE000DF50166E16C017F0186A17501A5C18508D
:102CF0001B58E0E3FF0CE8CF2CF02C505DEC19F0F2
:102D00002B6E17D02C504CEC17F00009D8A4E1EC36
:102D10001BF012002C504CEC17F00009D8A40AEC60
:102D200017F02C50A6EC19F00009D8A40AEC17F003
:102D300012002B50010AE6E0030AD8A41200EAD7D9
:102D40003B2A1D0E3B6401D03B6A0B6A0B50076E99
:102D5000086A600E0724D96E0F0E0820DA6E3B5009
:102D60000E0D250EF324096E010EF4200A6E0B5091
:102D70000924E16E000E0A20E26EDFCFE7FF0B2A86
:102D80000D0E0B64E3D7609E0D0CE8CF24F101011A
:102D9000010E166E000E156E186A17681A6A240E58
:102DA000196ED5EC19F00101010E196E000E186EA6
:102DB000245155EC10F0010E166E000E156E240E07
:102DC000176E1BEC1BF08B808B8C8B9C8B901200F6
:102DD0001D6A1E6A1E5060EC1BF0000903E0010E24
:102DE0001D6E05D01E2A1E50800A780FF3E31D5079
:102DF00003E009D8176A02D006D817681A6A080EC5
:102E0000196ED5EF19F00001000E166EC10E156E89
:102E1000186A1200166A156A010E176E67EC18F030
:102E20001A6A1B6A0400100E1A24156E000E1B206D
:102E3000166E000E176A67EC18F01A4A1B2A1B5010
:102E4000800A800F400ED8B41A5CECE3010E496E84
:102E50000001F66F010C196A1A6A1B6A1C6A11D00C
:102E60001D6A1E6A1D4A1E2A1E50800A7E0F6C0EA5
:102E7000D8B41D5CF7E30400192A000E1A221B22A5
:102E80001C221550195C16501A5817501B58185010
:102E90001C58D8B01200E4D7E8CF2AF02A50D96ED7
:102EA000DA6AFF0EDE14266EFF0EDE14276EFF0EAA
:102EB000DE14286E000EDE14296E71EC11F029501C
:102EC0001C1808E128501B1805E127501A1802E1C8
:102ED0002650191801E1010C000CE8CF15F0166A14
:102EE000176A1650F40F10D8DFCFE7FF1650F50F12
:102EF0000BD8E12AE26ADFCFE7FF164A172A1750FC
:102F00001610D8A41200EDD7D96EDA6A1650030D48
:102F10001550F324E16EE26A1200E8CF17F0186A48
:102F2000196A1850030DF350600FD96EDA6A175002
:102F3000DF620BD01850030DF350610FD96EDA6ABF
:102F4000DECF15F0DDCF16F01200184A192A1950FD
:102F50001810E7E0156A166A1200196A1950C10FB5
:102F6000D96EDA6A000E1924156E166A010E162241
:102F700041EC1AF0DF6E19500001B10FE16EE26A08
:102F8000DFCFE7FF1950B90FD96EDA6AE7CFDFFF5D
:102F9000192A070E1964E2D7070CE8CF28F0F86762
:102FA00004D0CCEC1BF0000906E0730E156E265021
:102FB00082EC15F0F86B27500FE082EC14F0A1ECD6
:102FC00013F026C01DF00001730E1E6E2850B4ECE5
:102FD0000FF0000901E0010C000CE8CF1CF01D6AA5
:102FE0001E6A10D004001C501D24D96EDA6A100E1F
:102FF0001D24156E000E1E20166E41EC1AF0DF6EB9
:103000001D4A1E2A19C01AF01B6A1A501D5C1B505B
:103010001E58D8B01200E6D7E8CF1DF01E6A1F6A0E
:1030200010D0100E1E24156E000E1F20166E1D509F
:103030001E24D96EDA6ADF50176E67EC18F01E4A4C
:103040001F2A1AC01BF01C6A1B501E5C1C501F5804
:10305000D8B01200E6D7E8CF19F01F0E6F1619503E
:103060006F1215681668080E176E186A040006D0ED
:103070000400FF0E15061622172218226E50E00BD0
:10308000191805E01850151016101710F1E104007A
:103090001200E8CF15F01550D96EDA6ADE6ADE6AE2
:1030A000DE6ADD6A0DD8010EDF121550D96EDA6ABC
:1030B0000C0ED926DA6ADF6A03D8FD0EDF16FD0C86
:1030C0001550D96EDA6A0E0ED926DA6A120018681F
:1030D00019681650AA6E15C0A9FF17C0A8FFF29E66
:1030E000040EA66E550EA76EAA0EA76EA682F28ECD
:1030F00001D00400A6A212001806D8A019061828AC
:10310000D8B41928D8B41200F4D7E8CF19F01A6A45
:10311000171C186E1AC015F0195079EC1BF0185CCA
:1031200007E319501A24D96EDA6A1750DF2605D042
:1031300019501A24D96EDA6ADF681A2A070E1A643F
:10314000E7D7070CE8CF19F01A6A1AC015F0195022
:1031500079EC1BF0186E1750185C07E319501A240D
:10316000D96EDA6A1750DF5E05D019501A24D96E6D
:10317000DA6ADF6A1A2A070E1A64E7D7070CE8CF63
:103180001BF018C015F01B5079EC1BF01A6E171CC1
:10319000196E1A50195C08E31B501824D96EDA6AAC
:1031A0001A501724DF6E12001B501824D96EDA6AE9
:1031B000DF68FF0CE8CF19F01950D96EDA6ADECF5C
:1031C00015F0DECF16F0DECF17F0DECF18F0100EC0
:1031D00005D0D8901832173216321532E82EF9D7AA
:1031E00015507F0B1A6E1A501200E8CF19F01950C3
:1031F000D96EDA6ADECF15F0DECF16F0DECF17F02B
:10320000DECF18F00C0E05D0D890183217321632D7
:103210001532E82EF9D715500F0B1A6E1A501200FE
:10322000E8CF18F015C01AF018C019F00AD01A50DB
:10323000D96EDA6A1950E16EE26ADFCFE7FF1A2A27
:10324000192A1606D8A017061628D8B41728D8B4F5
:103250001200EDD7E8CF1AF018C015F01A5079EC2B
:103260001BF0196E1750195C08E31A501824D96E18
:10327000DA6A1750195CDF6E12001A501824D96EE2
:10328000DA6A000EDF6E000C0001EE29D8B4EF29D7
:103290000FE1166A040E156E41EC1AF00001EF6F93
:1032A000EE6B166A050E156E41EC1AF00001EE1376
:1032B000EEC019F0EFC01AF01200E8CF19F0195063
:1032C000D96EDA6ADECF15F0DECF16F0DECF17F05A
:1032D000DECF18F0190E05D0D890183217321632FA
:1032E0001532E82EF9D715500F0B1200E8CF16F063
:1032F000176A186A1750030D1650F324D96EDA6A4C
:103300001550DF6205D01750030D1650F32412003C
:10331000174A182A18501710EDE0000CF229D8B4FB
:10332000F3290FE1166A060E156E41EC1AF0000142
:10333000F36FF26B166A070E156E41EC1AF000017E
:10334000F213F2C019F0F3C01AF01200E8CF19F02E
:103350001950D96EDA6AFF0EDE14156EFF0EDE14F8
:10336000166EFF0EDE14176E000EDE14186E185067
:1033700015101610171001E1010C000CE8CF17F022
:103380004750030DF3500001600FD96EDA6A17C081
:10339000DFFF4750030DF350610FD96EDA6A15C095
:1033A000DEFF16C0DDFF472A120015C01BF016C055
:1033B0001CF008D01BC0D9FF1CC0DAFF17C0DFFF0C
:1033C0001B4A1C2A1906D8A01A061928D8B41A288C
:1033D000D8B41200EFD7E8CF17F04850030DF350E0
:1033E000630FD96EDA6A17C0DFFF4850030DF35040
:1033F000640FD96EDA6A15C0DEFF16C0DDFF482AF9
:10340000120060CE67F070CE68F074CF42F040CF0B
:103410006BF030CF6CF020CF6DF075CF6AF076CFC7
:103420006FF0FCCD6EF0FACD69F056EF1AF00D0199
:10343000FCB502D0FC85030CFCB702D0FC87040C61
:10344000FCB902D0FC89050CFABD02D0FA8D160C2D
:10345000FABF000CFA8F170C1A6A000E1A24156EA8
:10346000166A010E16221A500001B10FD96EDA6ADF
:10347000DF50176E67EC18F01A2A070E1A64EDD7A2
:10348000070C1768186801D00400A6A207D0170619
:10349000D8A018061728D8B41828F6E11650AA6E36
:1034A00015C0A9FF010EA66EA8501200EBEC1BF090
:1034B000D6EC1BF00400E4EC1BF00400B3EC11F0BC
:1034C000B3EC11F0B3EC11F0B3EC11F0B3EC11F07C
:1034D00004001200E8CF15F01550D96EDA6A0C0E10
:1034E000D926DA6A010EDF64000C1550D96EDA6A4B
:1034F000050ED926DA6ADF501200E8CF15F0155014
:10350000D96EDA6A0C0ED926DA6ADF5008E0155057
:10351000D96EDA6A040ED926DA6ADF501200000C7E
:1035200036C015F037C016F038C017F039C018F0A3
:1035300000019A0EEFEC12F09A0EC4EC07F00001B5
:103540009A0E49EF18F0E8CF16F01650D96EDA6AE5
:10355000050ED926DA6A15C0DFFF1650D96EDA6A71
:103560000C0ED926DA6ADF2A1200E8CF01F0D890D3
:103570003F360150010B3F123F50F60A010ED8A40E
:10358000000E026E0250D8A43F6A02501200E8CF2B
:103590001BF01B50B10FD96EDA6A1AC0DFFF000EA4
:1035A0001B24156E166A010E16221AC017F067EF5B
:1035B00018F0E8CF16F01650D96EDA6A040ED92644
:1035C000DA6A15C0DFFF1650D96EDA6A0C0ED926FA
:1035D000DA6ADF2A12006EB4050C6E50060B01E0A9
:1035E000040C6EB6030C6E50160B01E0160C6E50F8
:1035F000170B01E0170C000CE8CF19F01950D96E29
:10360000DA6ADECF15F0DECF16F0DECF17F0DECFB0
:1036100018F018B8010C000CE8CF17F01750020D85
:103620006D0EF324D96E040EF420DA6EDECF15F0A1
:10363000DDCF16F012000BD015C0D9FF16C0DAFF8F
:10364000DF50C96E154A162AC7A0FED7170617669F
:10365000F3D71200E8CF03F00350400B436004D0CF
:103660000344010BB5EF1AF00350400B436E000CFE
:10367000E8CF16F01650800A780FD8B01200165016
:10368000C10FD96EDA6A15C0DFFF1200E8CF15F05E
:10369000166A15501624D96EDA6ADF6A162A070EE2
:1036A0001664F7D7070C166A156A020E176E67ECD8
:1036B00018F00400020E496E010E0001666F010C45
:1036C000E8CF17F01750800A780F06E217C015F000
:1036D0000001C10E79EF1BF0000C02D00AEF17F0C9
:1036E0000001F751010AFAE0030AD8A4120053EFCF
:1036F0001BF0E8CF16F0080E1560000C16501524CC
:10370000D96EDA6ADF501200000E166A156A41ECB3
:103710001AF0196E1950020A01E1010C000C000E9A
:10372000166A156A41EC1AF0196E190401E1010CD0
:10373000000C4950040AD8B4120049C0F7F0040E36
:10374000496E040CCE6AE00ECF6ECD88CD8ACD8056
:103750009F90E00C938C938E8150400B436EF286C9
:10376000F1901200FF0E16681568176867EC18F0E4
:10377000FF001200E8CF15F0155001E1010C000C1C
:10378000E8CF15F0155001E1010C000CFFFF7A00A5
:10379000FFFF050801FF0100665102E06607010C0A
:1037A000000C3B503A1801E0010C000C0D01FC6BC1
:1037B000FA9DFA9F1200442A44041200000E05EFFD
:1037C00010F0030E496E030C010E05EF10F09D8002
:1037D00012009D9012006F88120049501200446A36
:0837E000120012001200FF00AC
:020000040030CA
:0600010006080E008091CC
:00000001FF
