:0408000032EF04F0DF
:10080800E1CF0AF0E2CF0BF0D9CF0CF0E2ED0BF01C
:10081800D8CF01F0E8CF02F0E0CF03F09EA001D0DE
:1008280001D015D0E00ECF6E020E4B6E0001E50729
:10083800D8A0E607E651E511D8A401D001D006D02A
:10084800010E496E000EE66F7A0EE56F9E9003C0AA
:10085800E0FF02C0E8FF01C0D8FF10004CEF14F021
:100D000020444154413A200049443A200000E8CFB1
:100D100020F01A681B68080E1C6E000E1D6E01D0B4
:100D200004003C500DE0FF0E1A061B221C221D225F
:100D30001A28D8B41B28D8B41C28D8B41D28F0E130
:100D4000FF0E3924126E136AFF0E13223A50121846
:100D50001310D8B412003A501D0A03E1396601D0CD
:100D600012001C0E3A6402D01F6A02D03A281F6E8D
:100D7000C5D8080EDF6408D02050D96EDA6A0C0E90
:100D8000D926DA6A080EDF6EB9D81F500E0D970EFD
:100D9000F324E16E020EF420E26EDFCFE7FF205075
:100DA000D96EDA6A0E0ED926DA6ADF50126E12B2E6
:100DB00023D01F50B2D8BF0EDF161E6A18D02050A5
:100DC0001E24D96EDA6A040ED926DA6A1F500E0D77
:100DD000980EF324126E020EF420136E1E5012248D
:100DE000E16E000E1320E26EDFCFE7FF1E2A86D8E9
:100DF000DF501E5C05E2E3D71F508FD8400EDF1294
:100E00002050D96EDA6A1F500E0D960EF324E16E53
:100E1000020EF420E26EDFCFE7FF1F500E0D950E9D
:100E2000F324D96E020E5CD813C012F014C013F074
:100E300015C014F0156A125068D852D80E0E01D0A1
:100E400074D8E82EFDD7E00E12162050E16EE26A4B
:100E5000E6CF16F0E6CF17F0E6CF18F0E6CF19F0A0
:100E6000110E05D0D8901932183217321632E82EEA
:100E7000F9D71650030B1210DF6E1F500E0D930E94
:100E8000F324D96E020E2CD8160E01D04ED8E82EBF
:100E9000FDD712503AD8F420DA6E080EDF121F5038
:100EA0000E0D920EF324D96E020EF420DA6E20504D
:100EB000E16EE26A0D0EE126E26AE750030BDF6E97
:100EC0001FC03AF00D01FC511C0B1C0A04E0A48861
:100ED000010E3C6E010CFAADFAD7FABF1200F7D73B
:100EE000F420DA6E2050E16EE26AE6CF12F0E6CF2F
:100EF00013F0E6CF14F0E6CF15F012002050D96EB3
:100F0000DA6A0C0ED926DA6A1200DF6E1F500E0D57
:100F1000940EF324D96E020E12000E0D970EF324D8
:100F2000D96E020EF420DA6E1200D8901532143207
:100F30001332123212000001D46BD36B0400D7ECD1
:100F40001AF0000901E186D042EC09F020EE7CF0B5
:100F50000F0EEECFDEFFE82EFCD7040000017C0E62
:100F600032EC1AF0000903E07C0ED5EF15F07C0E90
:100F7000FAEC17F0D96F7C0E30EC18F0D46FD9C0B2
:100F800013F0D4C014F0B20EF3EC10F0000962E0DC
:100F90007C0E8DEC19F0D36FD951C1EC1AF0000919
:100FA00034E0D56BD66B04000001D551030DF3502E
:100FB000610FD96EDA6ADECF31F0DDCF32F001D8C1
:100FC0001CD00500FA6E3150FD6E3250FE6EFF6A85
:100FD000FA507C0E256ED551030DF350600FD96E7B
:100FE000DA6ADF50126EB20E4BEC18F0266ED3C0E8
:100FF00027F0D4C028F08B0E1200D54BD62B020E52
:10100000D55D000ED6591CE2CED7D9511EEC16F094
:1010100001D816D00500FA6E1250FD6E1350FE6E08
:10102000FF6AFA507C0E256ED9C012F0B20E4BEC5E
:1010300018F0266ED3C027F0D4C028F08B0E120013
:101040000001975107E08B0E87EC06F000018B0E34
:1010500085EC17F00001D76BD86B4B6603D0D16BD2
:10106000D26B04D04BC0D1F0D26B4B06D751030DDD
:10107000F350670FD96EDA6ADECF31F0DDCF32F090
:1010800001D818D00500FA6E3150FD6E3250FE6E58
:10109000FF6AFA50D751030DF350660FD96EDA6A22
:1010A000DF50126EB20E4BEC18F0236ED1C024F05C
:1010B0008B0E120000090BE00001975108E00400BC
:1010C0008B0E87EC06F000018B0E85EC17F000010B
:1010D000D74BD82B020ED75D000ED859D8B01200CE
:1010E000BCD7E8CF1FF051D00F010F0E216E000EBC
:1010F0004AD00F010F0E216E040E45D00F010F0EC6
:10110000216E080E40D00F010F0E216E0C0E3BD049
:101110000F010F0E216E100E36D00F010F0E216E33
:10112000140E31D00D010D0E216E600E2CD00D016C
:101130000D0E216E640E27D00D010D0E216E680E6E
:1011400022D00D010D0E216E700E1DD00D010D0E61
:10115000216E740E18D00D010D0E216E780E13D075
:101160000D010D0E216E800E0ED00D010D0E216EA3
:10117000840E09D00D010D0E216E880E04D00D01D4
:101180000D0E216E900E206E20D01F50ADE0010A92
:10119000B0E0030AB3E0010AB6E0070AB9E0010AC9
:1011A000BCE0030ABFE0010AC2E00F0AC5E0010A81
:1011B000C8E0030ACBE0010ACEE0070AD1E0010A49
:1011C000D4E0030AD7E0010ADAE0150E166E12C069
:1011D00017F013C018F014C019F015C01AF01667F4
:1011E00001D007D01A341A32193218321732162E9B
:1011F000F6D7175020C0D9FF21C0DAFFDF6E12C02A
:1012000016F013C017F014C018F015C019F0110E25
:1012100005D0D8901932183217321632E82EF9D785
:10122000030E16160D0E1A6E12C01BF013C01CF022
:1012300014C01DF015C01EF01A6701D007D01E346F
:101240001E321D321C321B321A2EF6D71B50E00BF9
:1012500016100809204A212A20C0D9FF21C0DAFF30
:10126000DF6E204A212A20C0D9FF21C0DAFF13C037
:10127000DFFF204A212A20C0D9FF21C0DAFF12C097
:10128000DFFF12001C0E376403D00001C16B03D0D6
:1012900037280001C16FC1510E0DF30EF324D96E32
:1012A000000EF420DA6EDF500F0BCE6FC1510E0D21
:1012B000EE0EF324D96E000EF420DA6EDF50216EAC
:1012C00021A602D0D0831FD0D093C06B19D0C151BA
:1012D0000E0DF40EF324216E000EF420226EC05188
:1012E0002124D96E000E2220DA6EC0C023F0040E35
:1012F00023262350C20FE16EE26ADFCFE7FFC02B47
:10130000CE51C05DE4E3C1510E0DEF0EF324D96E52
:10131000000EF420DA6EDF50216E21C022F0236A25
:10132000D89022362336D89022362336D8902236CB
:10133000233622C0C2F023C0C3F0C46BC56BC151B9
:1013400065D8216E050E226ED8902132222EFCD750
:101350002150C213C1515AD8216E21A648D0D08144
:10136000C2C021F0C3C022F0C4C023F0C5C024F025
:10137000020ED8902136223623362436E82EF9D7AD
:10138000C15144D8030B2110C26F2250C36F2350A8
:10139000C46F2450C56F100ED890C237C337C437FE
:1013A000C537E82EF9D7C1510E0DF10EF324D96ED1
:1013B000000EF420DA6EDF50226E216A2150236E77
:1013C0002250246E256A266A2350C2132450C31368
:1013D0002550C4132650C513C1510E0DF20EF3242F
:1013E000D96E000EF420DA6EDF50C21301D0D09116
:1013F000C1C037F020EED0F000EE20F00F0EDDCFB0
:10140000EDFFE82EFCD7E92AEA2212000E0DF00EBD
:10141000F324D96E000EF420DA6EDF501200E8CF0C
:101420002FF0286684D025C019F026C01AF027C0F6
:101430001BF02F50D0EF0EF0090E126E2F500FEC54
:101440001AF084D87EEC13F02F502CEF10F02C6A99
:101450002D6A14D02650A9EC15F02C24D96EDA6A26
:10146000DF50126E265062EC16F0306E30BE04D0A3
:10147000126A30504AEC13F02C4A2D2A2650D96EAD
:10148000DA6AD92ADA6ADF50296E29C02AF02B6A73
:101490002A502C5C2B502D58D8B01200DBD7255089
:1014A000C6EC19F02E6E28C012F0265062EC16F031
:1014B000306E30AE2EBE12002EC012F030504AEF09
:1014C00013F028C012F0265062EC16F0306E30BED9
:1014D00012003050C7EF16F02550B3EC19F0EB6F47
:1014E00028C012F0265062EC16F07A6F120028C065
:1014F00012F0265062EC16F0306E305009EC17F006
:101500002E6E30AE2EBE0BD01F0E126E2F500FEC73
:101510001AF02EC012F02F50D9EC19F005D0080E99
:10152000126E2F500FEC1AF011D87EEF13F02750E7
:10153000020A82E0070A8BE01B0AB1E0010AD7E049
:101540003F0ABFE0010AD8A41200C6D728C012F093
:101550002650D96EDA6ADF50136E2F501200B4ECA9
:1015600011F0DEEC12F039EC19F0140E136E1E0EB1
:10157000126E030EF7EC18F02A0E136E680E126E40
:10158000030EE1EC18F0BAEC1AF01E0E136E720E98
:10159000126E020EF7EC18F02B0E136EF40E126E94
:1015A000020EE1EC18F0B80EB46FBD0EB76FB1ECDF
:1015B00010F016C033F017C034F018C035F019C061
:1015C00036F0DFEC1AF00001B20E40EC16F0F28EAD
:1015D000F28CD08E9CEC1AF0EEEC1AF0D180040064
:1015E00075EC1AF0000903E084EC16F01FD06AECE9
:1015F0001AF00009D8B432EF04F0136A126A020E2E
:10160000146EA3EC17F00400020E4E6E0001746F0E
:10161000ECEC1AF0B20E74EC11F06FEC10F06FEC11
:1016200010F06FEC10F00400A0EC19F00400E8ECEE
:101630001AF00001DA6FDA05D8B44FEC0DF0E8ECDF
:101640001AF0020AD8B49BEC07F0E8EC1AF0030A8F
:101650000CE10400E80E126E030E136E000E146A05
:10166000156AE8EC16F0A4EC1AF0E8EC1AF0040A9B
:10167000D8B42EEC12F0F0EC1AF00009D8A465EC06
:1016800018F03B50D3E03B6AE8EC1AF0020AD8B4F9
:1016900093EC1AF023EC19F0C9D7E8CF1CF0000E38
:1016A0001210166E000E1310176E000E1410186E26
:1016B000040E1510196E1C50D96EDA6A16C0DEFFC2
:1016C00017C0DEFF18C0DEFF19C0DDFFD906D9063E
:1016D0001C50D96EDA6A0E0ED926DA6A010EDF12B4
:1016E0006AD8DF6A1A6A1B6A66D8DF50166E1C5009
:1016F0001624D96EDA6A040ED926DA6ADF6A5BD854
:10170000DF2A1A4A1B2A080E1A5C000E1B58ECE34B
:101710001C50D96EDA6A040ED926DA6A3FC0DFFFA0
:101720001C50D96EDA6A050ED926DA6A41C0DFFF8D
:101730001C50D96EDA6A060ED926DA6A46C0DFFF77
:101740001C50D96EDA6A070ED926DA6A40C0DFFF6C
:101750001C50D96EDA6A080ED926DA6A43C016F030
:10176000F00E161642500F0B1610DF6E1C50D96E7D
:10177000DA6A090ED926DA6A45C016F0D890163210
:10178000D8901632070E16164450F00B1610DF6E66
:101790001C50D96EDA6A0A0ED926DA6A3D500F0B50
:1017A000DF6E1C50D96EDA6A0B0ED926DA6A3E500B
:1017B0000F0BDF6E12001C50D96EDA6A0C0ED926A0
:1017C000DA6A12000600DACF0DF0F3CF0EF0F4CF94
:1017D0000FF0A450A3140009D8B401D001D05FD0F9
:1017E00077CF10F0A4AE01D001D002D0A49E55D086
:1017F000A4AA01D001D008D0A3AA01D001D004D05E
:10180000A49A010E3B6E49D0A4A201D001D010D001
:10181000A3A201D001D00CD06ECF09F01F0E091683
:101820007750E00B0910776EB0EC15F0A49235D02C
:10183000A4A801D001D027D0A3A801D001D023D0E3
:1018400021EC1AF0116E1150D8B401D001D003D0A0
:10185000115019EC14F04FEC19F0116E1150D8B46E
:1018600001D001D00ED07750E00B1110776E5FECF5
:1018700015F00009D8B401D001D003D0115019ECF3
:1018800014F0A4980AD0A4AC01D001D006D0A3AC27
:1018900001D001D002D0A49C00D010C077FF3C6AD8
:1018A0000FC0F4FF0EC0F3FF0DC0DAFF0CC0D9FF6C
:1018B0000BC0E2FF0AC0E1FF1100E8CF1AF0FF0EF3
:1018C0004824136E146AFF0E142269D8DF501318CF
:1018D000141005E064D8FF0EDF62FE0C010C1A50F4
:1018E00056D8020E135C01E2FF0C176A010E166E49
:1018F0001B6A1C6A186A196A30D01B50030D1250FB
:10190000F324A9EC15F01824D96EDA6ADF5023E12C
:101910001A501624D96EDA6A040ED926DA6A1B50D8
:10192000030D1250F324E16EE26A020EE126E26A30
:10193000E7501824E16EE26ADFCFE7FF164A172A64
:101940001A5025D813C014F0156A1450165C15509F
:10195000175801E3000C184A192A1B50030D1250A6
:10196000F324D96EDA6AD92ADA6ADF50136E13C00B
:1019700014F0156A1450185C15501958BEE31B4A30
:101980001C2A020E1B5C000E1C58B4E3FD0CD96E21
:10199000DA6A0C0ED926DA6ADF50136E12001A507A
:1019A000D96EDA6A040ED926DA6A1200E8CF1FF07F
:1019B000000E1210176E000E1310186E000E141089
:1019C000196E080E15101A6E1F50D96EDA6A17C0FC
:1019D000DEFF18C0DEFF19C0DEFF1AC0DDFFD9062A
:1019E000D9061F50D96EDA6A0E0ED926DA6A010EB0
:1019F000DF121D6A1E6A1F50D96EDA6A040ED926DC
:101A0000DA6ADCEC1AF0DF6E1D4A1E2A206A216AAF
:101A10001B6A1C6A22D02050030D1650F324A9EC37
:101A200015F01B24D96EDA6ADF5015E12050030D42
:101A30001650F324D96EDA6A1F501D24E16EE26A53
:101A4000040EE126E26ADFCFE7FF1D4A1E2A1D5081
:101A5000070A1E1014E01B4A1C2A2050030D1650C2
:101A6000F324D96EDA6AD92ADA6ADF50176E17C002
:101A700018F0196A18501B5C19501C58CCE3204A06
:101A8000212A020E205C000E2158C2E31F50D96E9D
:101A9000DA6A0C0ED926DA6A1DC0DFFF1200A6EC46
:101AA00012F0495004E0496A8B0E87EC06F0D7EC3F
:101AB0001AF00009D8B41200F2EC1AF0EAEC1AF0AD
:101AC00042EC09F020EE7CF00F0EEECFDEFFE82EA8
:101AD000FCD77C0E32EC1AF0000905E07C0ED5EC48
:101AE00015F0EEEF1AF0355000017E63EEEF1AF0BC
:101AF00034507D63EEEF1AF033507C63EEEF1AF052
:101B0000B20E126E7C0E5DEC0CF0316E316621D09F
:101B1000B20E7EEC14F000090DE033C012F034C0B8
:101B200013F035C014F036C015F08B0EE6EC13F050
:101B3000EEEF1AF033C012F034C013F035C014F0D9
:101B400036C015F0B20E166E8B0ED6EC0CF0EEEF22
:101B50001AF03104C6E1B20E7EEC14F00009C1E0C7
:101B6000B20EF1EC11F06FEC10F06FEC10F06FECC6
:101B700010F051EC1AF08B0E85EC17F0EEEF1AF026
:101B8000E8CF1FF00BD00F010F0E216E180E04D0FE
:101B90000F010F0E216E1C0E206E04D01F50F3E0BB
:101BA000010AF6E0150E166E12C017F013C018F0F9
:101BB00014C019F015C01AF0166701D007D01A34F6
:101BC0001A32193218321732162EF6D7175020C093
:101BD000D9FF21C0DAFFDF6E12C016F013C017F074
:101BE00014C018F015C019F0110E05D0D890193294
:101BF000183217321632E82EF9D7030E16160D0ECC
:101C00001A6E12C01BF013C01CF014C01DF015C0DA
:101C10001EF01A6701D007D01E341E321D321C324E
:101C20001B321A2EF6D71B50E00B16100809204A5B
:101C3000212A20C0D9FF21C0DAFFDF6E204A212AE5
:101C400020C0D9FF21C0DAFF13C0DFFF204A212ABC
:101C500020C0D9FF21C0DAFF12C0DFFF1200E8CF99
:101C60001EF0DB07000EDC5BDD5BDE5BDE51DB11B3
:101C7000DC11DD114EE1F0EC1AF0000904E06E0E0B
:101C8000DB6F010E03D07A0EDB6F000EDC6FDD6BB5
:101C9000DE6B1F6A206A2ED01F50030DF350AB0F6E
:101CA000D96EDA6A020EDF6223D01E0E126E1E504B
:101CB0000FEC1AF01F50030DF350AA0FD96EDA6A19
:101CC000DF50126E1E50FDEC19F01F50030DF35043
:101CD000A90FD96EDA6ADF50126E1A50D96EDA6A1D
:101CE000DF50136E1E507EEC13F0ACEC1AF0010CBA
:101CF0001F4A202A1A50D96EDA6AD92ADA6ADF50C6
:101D00001B6E1BC01CF01D6A1C501F5C1D50205810
:101D1000C3E3000C45D0206A216A14D01A50A9EC04
:101D200015F02024D96EDA6ADF50126E1A5062EC78
:101D300016F0246E24BE04D0126A24504AEC13F02C
:101D4000204A212A1A5033D8205C1E502158D8B07E
:101D50001200E4D71950C6EC19F01F6E1FBE120016
:101D6000226A236A15D01A50A9EC15F02224D96EE4
:101D7000DA6ADF50126E1A5062EC16F0246E24BE3E
:101D800005D01FC012F024504AEC13F0224A232A37
:101D90001A500DD8225C1E502358D8B01200E3D739
:101DA0001B50050AB8E01B0AD8A41200D3D7D96E7D
:101DB000DA6AD92ADA6ADF501C6E1CC01DF01E6A6E
:101DC0001D501200E8CF1FF0216A226A3BD021503B
:101DD000DFEC17F0206E46D8D92ADA6A2050DF628D
:101DE00008D02150030D1B5043EC13F0010EDF62AD
:101DF00027D02150030D1B50F324D96EDA6AD92A5B
:101E0000DA6A20C0DFFF2150030D1B5043EC13F0B2
:101E1000020EDF6E1E0E126E1F500FEC1AF020C065
:101E200012F01F50FDEC19F01DD8DF50126E1A5041
:101E3000D96EDA6ADF50136E1F507EEC13F0010C7E
:101E4000214A222A1A50D96EDA6AD92ADA6ADF5070
:101E50001C6E1CC01DF01E6A1D50215C1E502258B5
:101E6000B6E3000C2150030D1B50F324D96EDA6A3F
:101E70001200E8CF2BF028663CD025C012F026C017
:101E800013F027C014F02B501200090E126E2B50C5
:101E90000FEC1AF037D87EEC13F02B502CEF10F02B
:101EA00028C012F0265088EC15F0296E2950DFEC7E
:101EB00017F02A6E29AE2ABE0BD01E0E126E2B50C2
:101EC0000FEC1AF02AC012F02B50FDEC19F005D0DF
:101ED000080E126E2B500FEC1AF014D87EEF13F090
:101EE000ECEC1AF026C018F0A90E196E255014EF6C
:101EF00013F02750010AF4E0030AC7E01C0AD8A433
:101F00001200CED728C012F02650D96EDA6ADF5000
:101F1000136E2B501200E8CF1FF0216A226A35D0D1
:101F2000215009EC17F0206E40D8D92ADA6A2050E7
:101F3000DF6207D02150030D1B50F324A9EC15F0EC
:101F400022E12150030D1B5043EC13F0010EDF6E14
:101F50002CD8D92ADA6A20C0DFFF1E0E126E1F505D
:101F60000FEC1AF020C012F01F50D9EC19F01DD858
:101F7000DF50126E1A50D96EDA6ADF50136E1F509E
:101F80007EEC13F0010C214A222A1A50D96EDA6A2B
:101F9000D92ADA6ADF501C6E1CC01DF01E6A1D5063
:101FA000215C1E502258BCE3000C2150030D1B5035
:101FB000F324D96EDA6A1200E8CF1CF0800EC1EC6F
:101FC00017F01C5008E0140E126E000E136A146A0B
:101FD000156AE8EC16F0430E706EBF0E716E870E38
:101FE000726E100E736E400E776E606A0F01506B4A
:101FF0000E01206B306B406B506B606B706BC00ED2
:102000000D01F86F3F0ED46FD56B100EE06F230EED
:10201000E16F450EE26FE36BE46BE56BE66BE76B3C
:10202000F06B040EF16FF26BF26B0F0119871D87D5
:102030000187058709870D8711871587A568000E19
:10204000C1EC17F0220EA36EA3880D01FC6BFA6998
:10205000FA9DFA9FA46A1200E8CF1AF098EC18F0E3
:1020600016C018F017C019F01A50D96EDA6A050EAA
:102070002ED8060ED926DA6A1950DF6EC9EC18F090
:1020800016C018F017C019F01A50D96EDA6A070E88
:102090001ED8080ED926DA6A1950DF6E1A50D96E8A
:1020A000DA6A090ED926DA6A75CFDFFF1A50D96EBF
:1020B000DA6A0A0ED926DA6A76CFDFFF1A50D96EAD
:1020C000DA6A0C0ED926DA6A060EDF26060CD92645
:1020D000DA6A18C0DFFF1A50D96EDA6A1200126885
:1020E000770E136EC00E146E1F0E156E000EC0EC30
:1020F0000DF0126A136A146A100E156E010EC0EC10
:102100000DF01268070E136E000E146A156A71EC5A
:1021100008F0126A136A146A100E156E050E71EC3F
:1021200008F012681F0E136E146A156A010E71EC26
:1021300008F012681F0E136E146A156A020E71EC15
:1021400008F01268170E136E146A156A030E71EC0C
:1021500008F01268170E136E146A156A040E71EFF8
:1021600008F0136A010E126E64EC19F01A6E1AC0B0
:102170001BF01C6A1D6A1E6A1CC01EF01BC01DF0ED
:102180001C6A1B6A1BC01FF01CC020F01DC021F080
:102190001EC022F0136A020E126E64EC19F01A6E61
:1021A0001AC01BF01C6A1D6A1E6A1DC01EF01CC0EE
:1021B0001DF01BC01CF01B6A1B501F121C5020126C
:1021C0001D5021121E502212136A030E126E64EC6F
:1021D00019F01F121FC016F020C017F021C018F010
:1021E00022C019F01200E8CF1AF0136601D0010CDA
:1021F0001B6A1C6A1B50030D1A50F324D96EDA6A4D
:102200001350DF6229D0186A196A14D01450C7EC31
:102210001AF00009ECE11B50030D1A50F324A9EC4D
:1022200015F01824D96EDA6A1450DF6201D0010C5F
:10223000184A192A1B50030D1A50F324D96EDA6A72
:10224000D92ADA6ADF50156E15C016F0176A1650D3
:10225000185C17501958DAE31B4A1C2A020E1B5C43
:10226000000E1C58C7E3000C1268136814680F0EA8
:10227000156E000EC0EC0DF0126813681468100E95
:10228000156E010EC0EC0DF022D8000E71EC08F0B6
:102290001ED8010E71EC08F01AD8020E71EC08F08D
:1022A00016D8030E71EC08F012D8040E71EC08F089
:1022B000000E2210126E000E2310136E000E24105A
:1022C000146E100E2510156E050E71EF08F0000E3D
:1022D0002210126E000E2310136E000E2410146EC6
:1022E000090E2510156E1200E8CF2BF0080E166EA1
:1022F0001F0E29EC17F0296A2A6A2E6A2F6A2C6AA7
:102300002D6A17D029501F0FD96EDA6A2E50030D8F
:102310002B50F324E16EE26A020EE126E26AE750F6
:102320002C24E16EE26ADFCFE7FF294A2A2A2C4AF1
:102330002D2A2E50030D2B50F324D96EDA6AD92A98
:10234000DA6ADF501C6E1CC01DF01E6A1D502C5C2A
:102350001E502D58D7E32E4A2F2A020E2E5C000E57
:102360002F58D8B01200CBD737D801D00400A6AE72
:1023700009D016062BD8D8B41728D8B41828D8B442
:102380001928F4E129D801D00400A6AC09D016061A
:102390001DD8D8B41728D8B41828D8B41928F4E10F
:1023A0001BD801D00400000E136A126A64EC19F005
:1023B0000009D8B41200160609D8D8B41728D8B422
:1023C0001828D8B41928D8B41200ECD7000E175A20
:1023D000185A195A1628120016681768186A196AC6
:1023E0001200E8CF2CF0296A080E286E2A6A2B6AA0
:1023F0002F6A306A2D6A2E6A13D02F50030D2C508D
:10240000F324A9EC15F02D24D96EDA6A2A50200F96
:10241000E16EE26ADFCFE7FF2A4A2B2A2D4A2E2AF5
:102420002F50030D2C50F324D96EDA6AD92ADA6AB8
:10243000DF501D6E1DC01EF01F6A1E502D5C1F5008
:102440002E58DBE32F4A302A020E2F5C000E305844
:10245000D1E328C017F0200E48EF17F004004950D0
:1024600014E0496A33C012F034C013F035C014F0E0
:1024700036C015F000018B0E4DEC0BF08B0E87EC87
:1024800006F000018B0E85EC17F0D7EC1AF000096E
:102490001FE042EC09F020EE7CF00F0EEECFDEFFE5
:1024A000E82EFCD7040000017C0E32EC1AF0000983
:1024B000D8B412007C0E7FEC18F0030AD8A41200E6
:1024C0007C0EA6EC16F00009D8A45EEC1AF01200FF
:1024D000ACEF1AF0E8CF1AF0000E1210166E000ED4
:1024E0001310176E000E1410186E020E1510196ED0
:1024F0001A50D96EDA6A16C0DEFF17C0DEFF18C0A8
:10250000DEFF19C0DDFFD906D9061A50D96EDA6A86
:102510000E0ED926DA6A010EDF121A50D96EDA6A67
:102520000C0ED926DA6A020EDF6E1A50D96EDA6AFC
:10253000040ED926DA6A4AC0DFFF1A50D96EDA6A69
:10254000050ED926DA6A79C0DFFF1200E951D8B446
:10255000120033C022F034C023F035C024F036C05E
:1025600025F034EC11F033C022F034C023F035C034
:1025700024F036C025F034EC11F033C022F034C022
:1025800023F035C024F036C025F034EC11F0F4EC23
:102590001AF00001B20EADEC14F033C012F034C0EA
:1025A00013F035C014F036C015F0B20E166E8B0E57
:1025B000D6EC0CF0EEEC1AF0E96B120098EC18F087
:1025C00016C018F017C019F0C9EC18F016C01AF0B0
:1025D00017C01BF0D0CF79F0184A192AD0B612D004
:1025E0001A4A1B2A136A070E126E1AC014F0A3ECC3
:1025F00017F0136A060E126E1B50146EA3EC17F040
:10260000010E03D0030ED0A8020E4A6E136A050E07
:10261000126E18C014F0A3EC17F0136A040E126EB9
:102620001950146EA3EF17F0E8CF1DF01E6A1F6A51
:1026300019D01E50030D1950F324D96EDA6ADF50F9
:102640001A6E1D5030EC18F01A180AE11D507FEC7C
:102650001AF01E0A05E11E50030D195014D8DF6A46
:102660001E4A1F2A1850D96EDA6AD92ADA6ADF5050
:102670001A6E1AC01BF01C6A1B501E5C1C501F589F
:10268000D8B01200D6D7F324D96EDA6A020ED92652
:10269000DA6A1200E8CF13F0050E1360050C125031
:1026A0000BE120D0898012008982120089881200F3
:1026B000898A12008A8C12001350F4E0010AF4E0B7
:1026C000030AF4E0010AF4E0070AD8A41200F2D7E2
:1026D000899012008992120089981200899A12003A
:1026E0008A9C12001350F4E0010AF4E0030AF4E0BB
:1026F000010AF4E0070AD8A41200F2D7E8CF19F0D3
:102700001950D96EDA6ADE6AF80EDE6E3F0EDE6EA2
:10271000DD6A12C014F07F0E141614C015F0166A8C
:10272000176A186A040ED8901536163617361836FA
:10273000E82EF9D71950D96EDA6A1550DE12165004
:10274000DE121750DE121850DD121950D96EDA6AF7
:1027500013500F0BDE12000EDE12DE12DD12DD5200
:10276000DD52000C1A6A1C6A1C506C0FD96EDA6AB2
:10277000DF50196E1C5009EC17F0191803E0010E18
:102780001A6E04D01C2A040E1C64EED71A501CE0EA
:102790007B2BDC0E7B65DC0C7B6B1D6A1D5009EC12
:1027A00017F01B6E1D5000016C0FD96EDA6ADF50F6
:1027B0001B1805E01BC017F01D50EBEC19F01D2A8B
:1027C000040E1D64EBD7040C7B6B1200E8CF1AF0EB
:1027D000000E1210166E000E1310176E000E14105D
:1027E000186E080E1510196E1A50D96EDA6A16C0D6
:1027F000DEFF17C0DEFF18C0DEFF19C0DDFFD906FF
:10280000D9061A50D96EDA6A0E0ED926DA6A010E86
:10281000DF121A50D96EDA6A040ED926DA6ADF6836
:102820001A50D96EDA6A0C0ED926DA6A010EDF6EFA
:10283000010CE8CF04F01BD00D01FC9912000D0132
:10284000FC9712000D01FC9512000D01FA95120083
:102850000D01FA9712000D01FA9912000D01FA9B71
:1028600012000D01FA9D12000D01FA9F1200045092
:10287000030AE8E0070AE3E0010ADEE0170AE5E000
:10288000010AE6E0070AE7E0010AE8E0030AE9E0F6
:10289000010AD8A41200E8D700EEEEF013EE48F0DB
:1028A000EE6AE550E150FCE1E250FAE100EE60F042
:1028B000600EEE6AE806FDE100EE33F01B0EEE6AF4
:1028C000E806FDE1120EF66E350EF76E000EF86E9C
:1028D00000EEDBF010EE13F00900F5CFEEFFE5504F
:1028E000E150FAE1EE0EF66E350EF76E000EF86E60
:1028F0000900F5CF4EF00001AFEF0AF0E8CF15F078
:10290000186A196A166A176A0ED01850030D155006
:10291000F324A9EC15F01624D96EDA6ADF5001E130
:10292000000C164A172A1850030D1550F324D96EBF
:10293000DA6AD92ADA6ADF50126E12C013F0146A0A
:102940001350165C14501758E0E3184A192A020E67
:10295000185C000E1958D6E3010CE8CF15F0186A80
:10296000196A166A176A0CD01850030D1550F32413
:10297000A9EC15F01624D96EDA6ADF6A164A172A0E
:102980001850030D1550F324D96EDA6AD92ADA6A81
:10299000DF50126E12C013F0146A1350165C1450FC
:1029A0001758E2E3184A192A020E185C000E19584B
:1029B000D8B01200D6D7E8CF16F0176A186A17D029
:1029C0001650A9EC15F01724D96EDA6A1750030DCA
:1029D0001250F324E16EE26ADFCFE7FF1750030DD8
:1029E000125043EC13F0010EDF6E174A182A1650EE
:1029F000D96EDA6AD92ADA6ADF50136E13C014F07E
:102A0000156A1450175C15501858D8B01200D8D752
:102A1000E8CF16F0176A186A16D01650A9EC15F010
:102A20001724D96EDA6A1750030D1250F324E16EA1
:102A3000E26ADFCFE7FF1750030D125043EC13F0AB
:102A4000DF6A174A182A1650D96EDA6AD92ADA6A62
:102A5000DF50136E13C014F0156A1450175C155034
:102A60001858D8B01200D9D7E8CF25F0EC6704D0B9
:102A7000D2EC1AF0000906E09A0E126E235008EC10
:102A800015F0EC6B24501AE0EB51800A7F0F09E33C
:102A9000752B030E756505D0756BEB077A51C7EC86
:102AA00016F0B2EC13F023C01AF000019A0E1B6E60
:102AB00025508BEC0FF0000901E0010C000C3A509E
:102AC000391825E0392A1D0E396401D0396A086A9F
:102AD00039500E0D920EF324046E020EF420056E92
:102AE00008500424D96E000E0520DA6E0850066ED8
:102AF000076A600E0624E16E0F0E0720E26EDFCF3C
:102B0000E7FF082A0D0E0864E3D76086000C010C6D
:102B1000E8CF16F0176A186A0CD016501AD8172486
:102B2000D96EDA6A1250DF6202D017501200174ACB
:102B3000182A1650D96EDA6AD92ADA6ADF50136E6B
:102B400013C014F0156A1450175C15501858E5E3BB
:102B5000FF0CD96EDA6A020ED926DA6ADF5012004B
:102B6000382A1D0E386401D0386A086A0850046E8D
:102B7000056A600E0424D96E0F0E0520DA6E3850F7
:102B80000E0DEE0EF324066E000EF420076E0850B4
:102B90000624E16E000E0720E26EDFCFE7FF082A71
:102BA0000D0E0864E3D7609E0D0CE8CF29F0295084
:102BB0007FEC18F0286E17D02950A6EC16F000090B
:102BC000D8A4E5EC1AF012002950A6EC16F0000982
:102BD000D8A484EC16F02950B1EC18F00009D8A460
:102BE00084EC16F012002850010AE6E0030AD8A48B
:102BF0001200EAD7E8CF25F0ED6704D0D2EC1AF046
:102C0000000906E0A90E126E2350DBEC14F0ED6B08
:102C1000245013E023C01AF0A90E1B6E2550E2ECDD
:102C20000EF0000903E0B3EC1AF0010C23C01AF017
:102C300025502FEC0EF00009F8E1000CE8CF14F05D
:102C4000156A166A1550030DF350600FD96EDA6AD3
:102C50001450DF620BD01550030DF350610FD96E85
:102C6000DA6ADECF12F0DDCF13F01200154A162A11
:102C7000020E155C000E1658E5E3126A136A120084
:102C8000E8CF12F0136A146A1350DF0F12D8DFCFA7
:102C9000E7FF1350E10F0DD8E12AE26ADFCFE7FF2B
:102CA000134A142A020E135C000E1458D8B01200F6
:102CB000EBD7D96EDA6A1350030D1250F324E16E8C
:102CC000E26A1200E8CF16F0176A186A0DD01650A3
:102CD000A9EC15F01724D96EDA6A1250DF6202D01F
:102CE00017501200174A182A1650D96EDA6AD92AD4
:102CF000DA6ADF50136E13C014F0156A1450175CB3
:102D000015501858E4E3FF0C136A126A010E146E92
:102D1000A3EC17F0176A186A0400100E1724126E3D
:102D2000000E1820136E000E146AA3EC17F0174A59
:102D3000182A1850800A800F400ED8B4175CECE3B4
:102D4000010E4E6E0001E96FACEF1AF0E8CF27F0EC
:102D50002750D96EDA6AFF0EDE14236EFF0EDE14E2
:102D6000246EFF0EDE14256E000EDE14266EB1EC0E
:102D700010F02650191808E12550181805E12450C4
:102D8000171802E12350161801E1010C000CE8CFDE
:102D900012F0050E1260050C0FD0010E891A010CFD
:102DA000020E891A020C100E891A100C200E891AB4
:102DB000200C400E8A1A400C1250EFE0010AF0E09D
:102DC000030AF1E0010AF2E0070AD8A41200F1D7E1
:102DD000166A176A186A196A11D01A6A1B6A1A4A9F
:102DE0001B2A1B50800A7E0F6C0ED8B41A5CF7E3C6
:102DF0000400162A000E1722182219221250165CFF
:102E0000135017581450185815501958D8B01200AC
:102E1000E4D7E8CF12F0050E1260FF0C0FD089B096
:102E2000010C000C89B2010C000C89B8010C000CDB
:102E300080BA010C000C81BC010C000C1250EFE0B8
:102E4000010AF0E0030AF1E0010AF2E0070AF3E008
:102E5000FF0CE8CF19F01A6A1B6A10D00400195051
:102E60001A24D96EDA6A100E1A24126E000E1B2074
:102E7000136E64EC19F0DF6E1A4A1B2A16C017F0A5
:102E8000186A17501A5C18501B58D8B01200E6D7B1
:102E9000E8CF1AF01B6A1C6A10D0100E1B24126EA9
:102EA000000E1C20136E1A501B24D96EDA6ADF50F4
:102EB000146EA3EC17F01B4A1C2A17C018F0196AED
:102EC00018501B5C19501C58D8B01200E6D7166A6F
:102ED000165000016C0FD96EDA6A000E1624126EBD
:102EE000136A010E132264EC19F0DF6E1650000114
:102EF0006C0FD96EDA6ADF50126E16504AEC13F07E
:102F0000162A040E1664E4D7040CE8CF12F012500F
:102F1000D96EDA6ADE6ADE6ADE6ADD6A0DD8010E13
:102F2000DF121250D96EDA6A0C0ED926DA6ADF6A1D
:102F300003D8FD0EDF16FD0C1250D96EDA6A0E0EA4
:102F4000D926DA6A1200156816681350AA6E12C0E4
:102F5000A9FF14C0A8FFF29E040EA66E550EA76E20
:102F6000AA0EA76EA682F28E01D00400A6A21200BD
:102F70001506D8A016061528D8B41628D8B41200FD
:102F8000F4D7E8CF16F01F0E6F1616506F121268A6
:102F90001368080E146E156A040006D00400FF0EB4
:102FA00012061322142215226E50E00B161805E0AB
:102FB0001550121013101410F1E104001200E8CFA4
:102FC00012F0030E1260FF0C0CD080B4010C000C48
:102FD00080B6010C000C81BE010C000C80BE010CFF
:102FE000000C1250F2E0010AF3E0030AF4E0010AD7
:102FF000F5E0FF0CE8CF16F01650D96EDA6ADECF96
:1030000012F0DECF13F0DECF14F0DECF15F00C0E91
:1030100005D0D8901532143213321232E82EF9D777
:1030200012500F0B176E17501200186A185009EC47
:1030300017F0176E000E1824126E136A010E132279
:1030400017C014F0A3EC17F0185000016C0FD96EE4
:10305000DA6A17C0DFFF182A040E1864E7D7040CD9
:10306000E8CF16F01650D96EDA6ADECF12F0DECF56
:1030700013F0DECF14F0DECF15F0100E05D0D8908F
:103080001532143213321232E82EF9D712507F0B58
:10309000176E17501200E8CF13F0146A156A145017
:1030A000030D1350F324D96EDA6A1250DF6205D093
:1030B0001450030D1350F3241200144A152A020E63
:1030C000145C000E1558EBE3000C000E0DEC19F02B
:1030D000000906E0000EC7EC16F0020EC7EC16F071
:1030E000010E0DEC19F0000906E0010EC7EC16F018
:1030F000030EC7EC16F0126A040E4AEF13F0E8CF85
:1031000016F01650D96EDA6ADECF12F0DECF13F069
:10311000DECF14F0DECF15F0190E05D0D8901532A1
:10312000143213321232E82EF9D712500F0B12005C
:103130000001E329D8B4E4290FE1136A040E126EEA
:1031400064EC19F00001E46FE36B136A050E126E74
:1031500064EC19F00001E313E3C016F0E4C017F0CB
:103160001200E8CF16F01650D96EDA6AFF0EDE14A0
:10317000126EFF0EDE14136EFF0EDE14146E000EC0
:10318000DE14156E155012101310141001E1010C0D
:10319000000CE729D8B4E8290FE1136A060E126E75
:1031A00064EC19F00001E86FE76B136A070E126E0A
:1031B00064EC19F00001E713E7C016F0E8C017F05F
:1031C0001200E8CF14F04D50030DF350660FD96E86
:1031D000DA6A14C0DFFF4D50030DF350670FD96E4C
:1031E000DA6A12C0DEFF13C0DDFF4D2A1200E8CFFD
:1031F00014F04C50030DF350600FD96EDA6A14C00E
:10320000DFFF4C50030DF350610FD96EDA6A12C024
:10321000DEFF13C0DDFF4C2A1200E8CF14F014507B
:10322000DFEC17F0136E14500001710FD96EDA6ADB
:10323000DF50131807E01450710FD96EDA6A13C00B
:10324000DFFF010C000C60CE3DF070CE3EF074CF7D
:1032500040F040CF42F030CF43F020CF44F075CF64
:1032600041F076CF46F0FCCD45F0FACD3FF079EF56
:1032700019F00F0EC112CC0E921689168016939C6F
:103280008A9C4A0403E04A50020A02E167EF17F001
:10329000899089928998899A8A9C15EF18F00D0176
:1032A000FCB502D0FC85030CFCB702D0FC87040CF3
:1032B000FCB902D0FC89050CFABD02D0FA8D160CBF
:1032C000FABF000CFA8F170C1468156801D00400BF
:1032D000A6A207D01406D8A015061428D8B415281D
:1032E000F6E11350AA6E12C0A9FF010EA66EA850F7
:1032F0001200EAEC1AF0CDEC1AF00400E2EC1AF03D
:1033000004006FEC10F06FEC10F06FEC10F06FEC4D
:1033100010F06FEC10F004001200E8CF12F0125021
:10332000D96EDA6A0C0ED926DA6ADF5008E012503C
:10333000D96EDA6A040ED926DA6ADF501200000C60
:1033400033C012F034C013F035C014F036C015F09D
:1033500000018B0E6AEC12F08B0E87EC06F0000178
:103360008B0E85EF17F0E8CF12F01250D96EDA6AA3
:103370000C0ED926DA6A010EDF64FF0C1250D96EEA
:10338000DA6A050ED926DA6ADF501200E8CF12F0A9
:103390001250D96EDA6A0C0ED926DA6A010EDF6491
:1033A000FF0C1250D96EDA6A050ED926DA6ADF50A0
:1033B0001200E8CF13F01350D96EDA6A050ED92641
:1033C000DA6A12C0DFFF1350D96EDA6A0C0ED92602
:1033D000DA6ADF2A1200E8CF18F018506C0FD96EA5
:1033E000DA6A17C0DFFF000E1824126E136A010E8E
:1033F000132217C014F0A3EF17F0E8CF13F0135007
:10340000D96EDA6A050ED926DA6A12C0DFFF1350C8
:10341000D96EDA6A0C0ED926DA6ADF2A1200E8CFF2
:1034200013F01350D96EDA6A040ED926DA6A12C084
:10343000DFFF1350D96EDA6A0C0ED926DA6ADF2A5A
:1034400012006EB4050C6E50060B01E0040C6EB653
:10345000030C6E50160B01E0160C6E50170B01E0BA
:10346000170C000CE8CF16F01650D96EDA6ADECFD2
:1034700012F0DECF13F0DECF14F0DECF15F015B86A
:10348000010C000C136A13500001710FD96EDA6A37
:103490001350DFEC17F0DF6E132A020E1364F3D71C
:1034A000020C136A126A020E146EA3EC17F00400E9
:1034B000020E4E6E0001746FECEF1AF002D084EF32
:1034C00016F00001EA51010AFAE0030AD8A412003A
:1034D00051EF1AF0000E136A126A64EC19F0166EBE
:1034E0001650020A01E1010C000C000E136A126A68
:1034F00064EC19F0166E160401E1010C000CE8CF23
:1035000012F01250D96EDA6A050ED926DA6ADF5047
:1035100012007A00000003020503FFFF7A00FFFF9C
:1035200001FFFF0101004E50040AD8B412004EC042
:10353000EAF0040E4E6E040CCE6AE00ECF6ECD881B
:10354000CD8ACD809F90E00CFF0E1368126814683E
:10355000A3EC17F0FF001200476602D042EC1AF00D
:10356000010E476E010C7A0EDB6F000EDC6FDD6F13
:10357000DE6F000C0F0EC112F19E0C0E9212938E94
:103580000C0CE8CF12F0125001E1010C000CE8CF56
:1035900012F0125001E1010C000C0D01FC6BFA9DC0
:1035A000FA9F1200745102E07407010C000C3850AD
:1035B000371801E0010C000C482A48041200000EE4
:1035C000DCEF0FF0010EDCEF0FF0030E4E6E030C7C
:1035D0004E5012006F881200476A12009D80120040
:1035E000475012009D901200486A12001200FF001E
:020000040030CA
:0600010006080E008091CC
:00000001FF
