:040800009BEF04F076
:10080800E1CF0CF0E2CF0DF0D9CF0EF0D9ED0BF01F
:10081800D8CF01F0E8CF02F0E0CF03F0D9CF04F051
:10082800DACF05F09EA001D001D076D0422A00018F
:100838006E4B6F2B4228D8A401D001D001D0426A58
:10084800E80E6E5D030E6F59D8A001D001D01DD0FF
:100858004050D8B401D001D00FD00101000E41247E
:10086800D96EDA6A010EDA22DF50FF0AD8B401D055
:1008780001D008D0412A06D04150D8B401D001D0C7
:1008880001D0410600016E6B6F6B0101000E41241F
:10089800D96EDA6A010EDA22DF50426001D001D047
:1008A80002D08A8801D08A980001D807D86701D079
:1008B80001D00FD0D905D8A401D001D005D0D96B6B
:1008C8008982010ED86F05D0010ED96F020ED86F3C
:1008D80089926C4B6D2B6D51800A7F0FF40ED8B442
:1008E8006C5DD8A001D001D004D06C6B6D6B020E8A
:1008F800476ED407D8A0D507D551D411D8A401D0B4
:1009080001D006D0010E446EFF0ED56FFA0ED46FDB
:10091800F00ECE6ECF689E9005C0DAFF04C0D9FFF6
:1009280003C0E0FF02C0E8FF01C0D8FF10005BEF82
:0209380010F0BD
:100D000020444154413A200049443A200000E8CFB1
:100D100022F01C680F0E1D6E000E1E6E1F6E01D09D
:100D200004003D500DE0FF0E1C061D221E221F2256
:100D30001C28D8B41D28D8B41E28D8B41F28F0E128
:100D4000FF0E3924146E156AFF0E15223A5014183E
:100D50001510D8B412003A501D0A03E1396601D0CB
:100D600012001C0E3A6402D0216A02D03A28216E89
:100D7000C5D8080EDF6408D02250D96EDA6A0C0E8E
:100D8000D926DA6A080EDF6EB9D821500E0DF90E99
:100D9000F324E16E020EF420E26EDFCFE7FF225073
:100DA000D96EDA6A0E0ED926DA6ADF50146E14B2E2
:100DB00023D02150B2D8BF0EDF16206A18D022509F
:100DC0002024D96EDA6A040ED926DA6A21500E0D73
:100DD000FA0EF324146E020EF420156E2050142423
:100DE000E16E000E1520E26EDFCFE7FF202A86D8E5
:100DF000DF50205C05E2E3D721508FD8400EDF1290
:100E00002250D96EDA6A21500E0DF80EF324E16EED
:100E1000020EF420E26EDFCFE7FF21500E0DF70E39
:100E2000F324D96E020E5CD815C014F016C015F06C
:100E300017C016F0176A145068D852D80E0E01D099
:100E400074D8E82EFDD7E00E14162250E16EE26A47
:100E5000E6CF18F0E6CF19F0E6CF1AF0E6CF1BF098
:100E6000110E05D0D8901B321A3219321832E82EE2
:100E7000F9D71850030B1410DF6E21500E0DF50E2C
:100E8000F324D96E020E2CD8160E01D04ED8E82EBF
:100E9000FDD714503AD8F420DA6E080EDF12215034
:100EA0000E0DF40EF324D96E020EF420DA6E2250E9
:100EB000E16EE26A0D0EE126E26AE750030BDF6E97
:100EC00021C03AF00D01FC511C0B1C0A04E0A4885F
:100ED000010E3D6E010CFAADFAD7FABF1200F7D73A
:100EE000F420DA6E2250E16EE26AE6CF14F0E6CF2B
:100EF00015F0E6CF16F0E6CF17F012002250D96EAB
:100F0000DA6A0C0ED926DA6A1200DF6E21500E0D55
:100F1000F60EF324D96E020E12000E0DF90EF32414
:100F2000D96E020EF420DA6E1200D8901732163203
:100F30001532143212000001C36BC26B040082EC44
:100F40001AF0000901E186D041EC09F020EE81F0B1
:100F50000F0EEECFDEFFE82EFCD704000001810E5D
:100F6000BAEC19F0000903E0810EC7EF15F0810E0D
:100F7000A9EC17F0C86F810E8EEC17F0C36FC8C0D4
:100F800015F0C3C016F09F0E21EC11F0000962E0CD
:100F9000810EF0EC18F0C26FC85176EC1AF000091F
:100FA00034E0C46BC56B04000001C451030DF35061
:100FB000610FD96EDA6ADECFBEF0DDCFBFF001D8A7
:100FC0001CD00500FA6EBE51FD6EBF51FE6EFF6A69
:100FD000FA50810E276EC451030DF350600FD96E85
:100FE000DA6ADF50146E9F0EC4EC17F0286EC2C090
:100FF00029F0C3C02AF0900E1200C44BC52B020E7C
:10100000C45D000EC5591CE2CED7C85176EC16F06F
:1010100001D816D00500FA6E1450FD6E1550FE6E04
:10102000FF6AFA50810E276EC8C014F09F0EC4EC00
:1010300017F0286EC2C029F0C3C02AF0900E12002B
:1010400000019C5107E0900E87EC06F00001900E25
:1010500036EC17F00001C66BC76B476603D0C06B58
:10106000C16B04D047C0C0F0C16B4706C651030D29
:10107000F350670FD96EDA6ADECFBEF0DDCFBFF076
:1010800001D818D00500FA6EBE51FD6EBF51FE6E3C
:10109000FF6AFA50C651030DF350660FD96EDA6A33
:1010A000DF50146E9F0EC4EC17F0256EC0C026F002
:1010B000900E120000090BE09C5109E004000001B1
:1010C000900E87EC06F00001900E36EC17F0C64B40
:1010D000C72B020EC65D000EC759D8B01200BDD78F
:1010E000E8CF21F051D00F010F0E236E000E4AD031
:1010F0000F010F0E236E040E45D00F010F0E236E4D
:10110000080E40D00F010F0E236E0C0E3BD00F01C6
:101110000F0E236E100E36D00F010F0E236E140E1D
:1011200031D00D010D0E236E600E2CD00D010D0E71
:10113000236E640E27D00D010D0E236E680E22D093
:101140000D010D0E236E700E1DD00D010D0E236EC0
:10115000740E18D00D010D0E236E780E13D00D01F4
:101160000D0E236E800E0ED00D010D0E236E840E1B
:1011700009D00D010D0E236E880E04D00D010D0E49
:10118000236E900E226E20D02150ADE0010AB0E017
:10119000030AB3E0010AB6E0070AB9E0010ABCE0BD
:1011A000030ABFE0010AC2E00F0AC5E0010AC8E075
:1011B000030ACBE0010ACEE0070AD1E0010AD4E03D
:1011C000030AD7E0010ADAE0150E186E14C019F010
:1011D00015C01AF016C01BF017C01CF0186701D01C
:1011E00007D01C341C321B321A321932182EF6D793
:1011F000195022C0D9FF23C0DAFFDF6E14C018F0E7
:1012000015C019F016C01AF017C01BF0110E05D04A
:10121000D8901B321A3219321832E82EF9D7030E41
:1012200018160D0E1C6E14C01DF015C01EF016C051
:101230001FF017C020F01C6701D007D020342032E7
:101240001F321E321D321C2EF6D71D50E00B181017
:101250000809224A232A22C0D9FF23C0DAFFDF6E01
:10126000224A232A22C0D9FF23C0DAFF15C0DFFF9C
:10127000224A232A22C0D9FF23C0DAFF14C0DFFF8D
:1012800012001C0E376403D00001AE6B03D0372868
:101290000001AE6FAE510E0D550EF324D96E010E46
:1012A000F420DA6EDF500F0BBB6FAE510E0D500EF7
:1012B000F324D96E010EF420DA6EDF50236E23A6DC
:1012C00002D0BD831FD0BD93AD6B19D0AE510E0DB2
:1012D000560EF324236E010EF420246EAD51232408
:1012E000D96E000E2420DA6EADC025F0040E25263E
:1012F0002550AF0FE16EE26ADFCFE7FFAD2BBB51A8
:10130000AD5DE4E3AE510E0D510EF324D96E010E26
:10131000F420DA6EDF50236E23C024F0256AD890C3
:1013200024362536D89024362536D89024362536CE
:1013300024C0AFF025C0B0F0B16BB26BAE5165D830
:10134000236E050E246ED8902332242EFCD7235012
:10135000AF13AE515AD8236E23A648D0BD81AFC07B
:1013600023F0B0C024F0B1C025F0B2C026F0020EC8
:10137000D8902336243625362636E82EF9D7AE51B6
:1013800044D8030B2310AF6F2450B06F2550B16FBA
:101390002650B26F100ED890AF37B037B137B23792
:1013A000E82EF9D7AE510E0D530EF324D96E010E6F
:1013B000F420DA6EDF50246E236A2350256E245009
:1013C000266E276A286A2550AF132650B01327507F
:1013D000B1132850B213AE510E0D540EF324D96E32
:1013E000010EF420DA6EDF50AF1301D0BD91AEC014
:1013F00037F020EEBDF000EE22F00F0EDDCFEDFF56
:10140000E82EFCD7E92AEA2212000E0D520EF32430
:10141000D96E010EF420DA6EDF501200E2EC11F00A
:1014200042EC13F0D8EC19F0150E156E580E146E30
:10143000030E5AEC18F0290E156EFC0E146E030EF6
:1014400087EC18F07CEC1AF01D0E156EB00E146EC1
:10145000020E5AEC18F02B0E156ED80E146E020EFA
:1014600087EC18F0AB0EA16FAC0EA46F9DEC10F0E2
:1014700018C033F019C034F01AC035F01BC036F074
:1014800097EC1AF000019F0E32EC16F0F28EF28CFF
:10149000D08E51EC1AF09DEC1AF0D18004002BECA8
:1014A0001AF0000903E054EC16F01FD00AEC1AF011
:1014B0000009D8B49BEF04F0156A146A020E166E88
:1014C00054EC17F00400020E4C6E0001706FA9EC92
:1014D0001AF09F0EA2EC11F0DFEC10F0DFEC10F030
:1014E000DFEC10F004003CEC19F00400A1EC1AF061
:1014F0000001C96FC905D8B446EC0DF0A1EC1AF093
:10150000020AD8B49BEC07F0A1EC1AF0030A0CE134
:101510000400E80E146E030E156E000E166A176AAC
:1015200098EC16F05AEC1AF0A1EC1AF0040AD8B4B0
:101530005CEC12F0A7EC1AF00009D8A43FEC1AF00A
:101540003C50D3E03C6AA1EC1AF0020AD8B448EC53
:101550001AF071EC18F0C9D7E8CF32F02A667CD0C7
:1015600027C01BF028C01CF029C01DF0325006EF28
:1015700010F0090E146E325085EC19F07CD878EC1E
:1015800013F0325018EF10F02E6A2F6A10D0285046
:101590009BEC15F02E24D96EDA6ADF50146E2850B9
:1015A00010EC16F0316E31AE406A2E4A2F2A2850C8
:1015B000D96EDA6AD92ADA6ADF502B6E2BC02CF08A
:1015C0002D6A2C502E5C2D502F58D8B01200DFD72A
:1015D000275016EC19F0306E2AC014F0285010EC89
:1015E00016F0316E31AE30BE120030C040F0120045
:1015F0002AC014F0285010EC16F0316E31BE1200E3
:101600003150FFEF19F0275029EC19F0DC6F2AC098
:1016100014F0285010EC16F07F6F12002AC014F05E
:10162000285010EC16F0316E40C030F031AE30BEB4
:101630000BD01F0E146E325085EC19F030C014F030
:1016400032504FEC19F005D0080E146E325085EC74
:1016500019F011D878EF13F02950020A8AE0070A2E
:1016600093E01B0AB5E0010AD9E03F0AC1E0010A94
:10167000D8A41200C8D72AC014F02850D96EDA6A4C
:10168000DF50156E32501200E8CF1EF0000E14101D
:10169000186E000E1510196E000E16101A6E040E3C
:1016A00017101B6E1E50D96EDA6A18C0DEFF19C003
:1016B000DEFF1AC0DEFF1BC0DDFFD906D9061E50B3
:1016C000D96EDA6A0E0ED926DA6A010EDF126AD8EE
:1016D000DF6A1C6A1D6A66D8DF50186E1E50182417
:1016E000D96EDA6A040ED926DA6ADF6A5BD8DF2A95
:1016F0001C4A1D2A080E1C5C000E1D58ECE31E50EF
:10170000D96EDA6A040ED926DA6A76C0DFFF1E5077
:10171000D96EDA6A050ED926DA6A78C0DFFF1E5064
:10172000D96EDA6A060ED926DA6A7DC0DFFF1E504E
:10173000D96EDA6A070ED926DA6A3EC0DFFF1E507C
:10174000D96EDA6A080ED926DA6A7AC018F0F00E75
:10175000181679510F0B1810DF6E1E50D96EDA6A09
:10176000090ED926DA6A7CC018F0D8901832D890C1
:101770001832070E18167B51F00B1810DF6E1E5032
:10178000D96EDA6A0A0ED926DA6A74510F0BDF6E47
:101790001E50D96EDA6A0B0ED926DA6A75510F0B14
:1017A000DF6E12001E50D96EDA6A0C0ED926DA6A84
:1017B00012000600DACF0FF0F3CF10F0F4CF11F0E3
:1017C000A450A3140009D8B401D001D05FD077CFC2
:1017D00012F0A4AE01D001D002D0A49E55D0A4AA8C
:1017E00001D001D008D0A3AA01D001D004D0A49A7E
:1017F000010E3C6E49D0A4A201D001D010D0A3A20A
:1018000001D001D00CD06ECF0BF01F0E0B1677500D
:10181000E00B0B10776EA2EC15F0A49235D0A4A8C3
:1018200001D001D027D0A3A801D001D023D0A9ECAA
:1018300019F0136E1350D8B401D001D003D0135057
:10184000DFEC13F09DEC18F0136E1350D8B401D0F8
:1018500001D00ED07750E00B1310776E29EC15F005
:101860000009D8B401D001D003D01350DFEC13F03D
:10187000A4980AD0A4AC01D001D006D0A3AC01D06A
:1018800001D002D0A49C00D012C077FF3D6A11C0E5
:10189000F4FF10C0F3FF0FC0DAFF0EC0D9FF0DC078
:1018A000E2FF0CC0E1FF1100E8CF1CF0FF0E432463
:1018B000156E166AFF0E162269D8DF50151816101D
:1018C00005E064D8FF0EDF62FE0C010C1C5056D8F8
:1018D000020E155C01E2FF0C196A010E186E1D6AFA
:1018E0001E6A1A6A1B6A30D01D50030D1450F3246F
:1018F0009BEC15F01A24D96EDA6ADF5023E11C50F4
:101900001824D96EDA6A040ED926DA6A1D50030D3E
:101910001450F324E16EE26A020EE126E26AE75017
:101920001A24E16EE26ADFCFE7FF184A192A1C5039
:1019300025D815C016F0176A1650185C175019589C
:1019400001E3000C1A4A1B2A1D50030D1450F32406
:10195000D96EDA6AD92ADA6ADF50156E15C016F028
:10196000176A16501A5C17501B58BEE31D4A1E2AF0
:10197000020E1D5C000E1E58B4E3FD0CD96EDA6A2F
:101980000C0ED926DA6ADF50156E12001C50D96E83
:10199000DA6A040ED926DA6A1200E8CF21F0000EC6
:1019A0001410196E000E15101A6E000E16101B6E14
:1019B000080E17101C6E2150D96EDA6A19C0DEFFAE
:1019C0001AC0DEFF1BC0DEFF1CC0DDFFD906D90632
:1019D0002150D96EDA6A0E0ED926DA6A010EDF12AC
:1019E0001F6A206A2150D96EDA6A040ED926DA6A93
:1019F0009AEC1AF0DF6E1F4A202A226A236A1D6AB7
:101A00001E6A22D02250030D1850F3249BEC15F0CF
:101A10001D24D96EDA6ADF5015E12250030D1850EB
:101A2000F324D96EDA6A21501F24E16EE26A040EB3
:101A3000E126E26ADFCFE7FF1F4A202A1F50070A8C
:101A4000201014E01D4A1E2A2250030D1850F324C2
:101A5000D96EDA6AD92ADA6ADF50196E19C01AF01B
:101A60001B6A1A501D5C1B501E58CCE3224A232AC5
:101A7000020E225C000E2358C2E32150D96EDA6AAE
:101A80000C0ED926DA6A1FC0DFFF1200D4EC12F068
:101A9000445004E0446A900E87EC06F082EC1AF0A1
:101AA0000009D8B41200A3EC1AF0A5EC1AF041EC2E
:101AB00009F020EE81F00F0EEECFDEFFE82EFCD70E
:101AC000810EBAEC19F0000905E0810EC7EC15F0A3
:101AD0009DEF1AF03550000183639DEF1AF03450EA
:101AE00082639DEF1AF0335081639DEF1AF09F0ED1
:101AF000146E810E54EC0CF02D6E2D6621D09F0ECD
:101B000074EC14F000090DE033C014F034C015F08B
:101B100035C016F036C017F0900EACEC13F09DEF08
:101B20001AF033C014F034C015F035C016F036C0CA
:101B300017F09F0E186E900ECDEC0CF09DEF1AF082
:101B40002D04C6E19F0E74EC14F00009C1E09F0E55
:101B50001FEC12F0DFEC10F0DFEC10F0DFEC10F017
:101B6000E6EC19F0900E36EC17F09DEF1AF0E8CF86
:101B700021F00BD00F010F0E236E180E04D00F01B1
:101B80000F0E236E1C0E226E04D02150F3E0010ACA
:101B9000F6E0150E186E14C019F015C01AF016C034
:101BA0001BF017C01CF0186701D007D01C341C3282
:101BB0001B321A321932182EF6D7195022C0D9FF0B
:101BC00023C0DAFFDF6E14C018F015C019F016C07C
:101BD0001AF017C01BF0110E05D0D8901B321A3224
:101BE00019321832E82EF9D7030E18160D0E1C6E96
:101BF00014C01DF015C01EF016C01FF017C020F055
:101C00001C6701D007D0203420321F321E321D3213
:101C10001C2EF6D71D50E00B18100809224A232A63
:101C200022C0D9FF23C0DAFFDF6E224A232A22C056
:101C3000D9FF23C0DAFF15C0DFFF224A232A22C0C2
:101C4000D9FF23C0DAFF14C0DFFF1200E8CF20F075
:101C5000CA07000ECB5BCC5BCD5BCD51CA11CB115B
:101C6000CC114EE1A7EC1AF0000904E0680ECA6F2F
:101C7000010E03D0780ECA6F000ECB6FCC6BCD6B0C
:101C8000216A226A2ED02150030DF350AA0FD96E7B
:101C9000DA6A020EDF6223D01E0E146E205085EC2D
:101CA00019F02150030DF350A90FD96EDA6ADF50F5
:101CB000146E205073EC19F02150030DF350A80F4F
:101CC000D96EDA6ADF50146E1C50D96EDA6ADF50B2
:101CD000156E205078EC13F069EC1AF0010C214AD3
:101CE000222A1C50D96EDA6AD92ADA6ADF501D6EB0
:101CF0001DC01EF01F6A1E50215C1F502258C3E3F6
:101D0000000CE8CF21F0236A246A3BD0235097ECE3
:101D100019F0226E46D8D92ADA6A2250DF6208D03A
:101D20002350030D1D503BEC13F0010EDF6227D052
:101D30002350030D1D50F324D96EDA6AD92ADA6ACA
:101D400022C0DFFF2350030D1D503BEC13F0020EA9
:101D5000DF6E1E0E146E215085EC19F022C014F0B7
:101D6000215073EC19F01DD8DF50146E1C50D96E41
:101D7000DA6ADF50156E215078EC13F0010C234A1B
:101D8000242A1C50D96EDA6AD92ADA6ADF501E6E0C
:101D90001EC01FF0206A1F50235C20502458B6E359
:101DA000000C2350030D1D50F324D96EDA6A120083
:101DB000E8CF2DF02A663CD027C014F028C015F0DB
:101DC00029C016F02D501200090E146E2D5085EC0E
:101DD00019F037D878EC13F02D5018EF10F02AC016
:101DE00014F028507AEC15F02B6E2B5097EC19F06C
:101DF0002C6E2BAE2CBE0BD01E0E146E2D5085EC0F
:101E000019F02CC014F02D5073EC19F005D0080E09
:101E1000146E2D5085EC19F014D878EF13F0A9EC5E
:101E20001AF028C01AF0A80E1B6E27500CEF13F002
:101E30002950010AF4E0030AC7E01C0AD8A41200E2
:101E4000CED72AC014F02850D96EDA6ADF50156E4A
:101E50002D501200E8CF1EF0800E18EC17F01E5027
:101E600008E0140E146E000E156A166A176A98ECD4
:101E700016F0430E706EBF0E716E870E726E100EEE
:101E8000736E400E776E606A0F01506B0E01206B0F
:101E9000306B406B506B606B706BC00E0D01F86F58
:101EA0003F0ED46FD56B100EE06F230EE16F450E21
:101EB000E26FE36BE46BE56BE66BE76BF06B040ED4
:101EC000F16FF26BF26B0F0119871D870187058790
:101ED00009870D8711871587A568000E18EC17F084
:101EE000220EA36EA3880D01FC6BFA69FA9DFA9F7E
:101EF000A46A1200E8CF21F0236A246A33D040C0DC
:101F000022F040D8D92ADA6A2250DF6207D0235063
:101F1000030D1D50F3249BEC15F022E12350030D1B
:101F20001D503BEC13F0010EDF6E2CD8D92ADA6A73
:101F300022C0DFFF1E0E146E215085EC19F022C066
:101F400014F021504FEC19F01DD8DF50146E1C50C6
:101F5000D96EDA6ADF50156E215078EC13F0010C5F
:101F6000234A242A1C50D96EDA6AD92ADA6ADF5049
:101F70001E6E1EC01FF0206A1F50235C2050245884
:101F8000BEE3000C2350030D1D50F324D96EDA6A12
:101F900012003CD0226A236A10D01C509BEC15F032
:101FA0002224D96EDA6ADF50146E1C5010EC16F041
:101FB000266E26AE406A224A232A1C502ED8225C66
:101FC00020502358D8B01200E8D71B5016EC19F057
:101FD000216E21BE1200246A256A10D01C509BEC91
:101FE00015F02424D96EDA6ADF50146E1C5010EC00
:101FF00016F0266E26AE406A244A252A1C500DD8BB
:10200000245C20502558D8B01200E8D71D50050A8E
:10201000C1E01B0AD8A41200D8D7D96EDA6AD92A2F
:10202000DA6ADF501E6E1EC01FF0206A1F501200B9
:10203000E8CF1CF0F8EC17F018C01AF019C01BF02C
:102040001C50D96EDA6A050E2ED8060ED926DA6A29
:102050001B50DF6E42EC18F018C01AF019C01BF0CC
:102060001C50D96EDA6A070E1ED8080ED926DA6A15
:102070001B50DF6E1C50D96EDA6A090ED926DA6A57
:1020800075CFDFFF1C50D96EDA6A0A0ED926DA6ADC
:1020900076CFDFFF1C50D96EDA6A0C0ED926DA6AC9
:1020A000060EDF26060CD926DA6A1AC0DFFF1C509E
:1020B000D96EDA6A120001EE50F013EE48F0EE6AC3
:1020C000E550E150FCE1E250FAE100EE60F04D0E27
:1020D000EE6AE806FDE100EE33F0190EEE6AE8065E
:1020E000FDE1A40EF66E2A0EF76E000EF86E01EEFC
:1020F00000F010EE50F00900F5CFEEFFE550E15092
:10210000FAE1400EF66E340EF76E000EF86E00EE39
:10211000CAF010EE15F00900F5CFEEFFE550E150E2
:10212000FAE1580EF66E350EF76E000EF86E0900E5
:10213000F5CF4CF000010EEF0AF0156A010E146E97
:10214000C7EC18F01C6E1CC01DF01E6A1F6A206AC6
:102150001EC020F01DC01FF01E6A1D6A1DC021F0A8
:102160001EC022F01FC023F020C024F0156A020E0A
:10217000146EC7EC18F01C6E1CC01DF01E6A1F6A9E
:10218000206A1FC020F01EC01FF01DC01EF01D6A77
:102190001D5021121E5022121F50231220502412B3
:1021A000156A030E146EC7EC18F0211221C018F046
:1021B00022C019F023C01AF024C01BF012001468CA
:1021C000770E156EC00E166E1F0E176E000EB7EC52
:1021D0000DF0146A156A166A100E176E010EB7EC30
:1021E0000DF01468070E156E000E166A176A70EC73
:1021F00008F0146A156A166A100E176E050E70EC58
:1022000008F014681F0E156E166A176A010E70EC3E
:1022100008F014681F0E156E166A176A020E70EC2D
:1022200008F01468170E156E166A176A030E70EC24
:1022300008F01468170E156E166A176A040E70EF10
:1022400008F0E8CF1CF0156601D0010C1D6A1E6A6B
:102250001D50030D1C50F324D96EDA6A1550DF624D
:1022600029D01A6A1B6A14D0165070EC1AF00009B3
:10227000ECE11D50030D1C50F3249BEC15F01A24C7
:10228000D96EDA6A1650DF6201D0010C1A4A1B2A95
:102290001D50030D1C50F324D96EDA6AD92ADA6A6C
:1022A000DF50176E17C018F0196A18501A5C1950D1
:1022B0001B58DAE31D4A1E2A020E1D5C000E1E5832
:1022C000C7E3000C1468156816680F0E176E000E31
:1022D000B7EC0DF0146815681668100E176E010E35
:1022E000B7EC0DF022D8000E70EC08F01ED8010EED
:1022F00070EC08F01AD8020E70EC08F016D8030E35
:1023000070EC08F012D8040E70EC08F0000E2410E7
:10231000146E000E2510156E000E2610166E100E8F
:102320002710176E050E70EF08F0000E2410146EC3
:10233000000E2510156E000E2610166E090E2710C1
:10234000176E1200E8CF27F0020E186E230EDAEC9B
:1023500016F0256A266A2A6A2B6A286A296A17D023
:102360002550230FD96EDA6A2A50030D2750F32423
:10237000E16EE26A020EE126E26AE7502824E16E8D
:10238000E26ADFCFE7FF254A262A284A292A2A506F
:10239000030D2750F324D96EDA6AD92ADA6ADF509E
:1023A0001E6E1EC01FF0206A1F50285C2050295846
:1023B000D7E32A4A2B2A020E2A5C000E2B58D8B0EB
:1023C0001200CBD737D801D00400A6AE09D018062A
:1023D0002BD8D8B41928D8B41A28D8B41B28F4E1BB
:1023E00029D801D00400A6AC09D018061DD8D8B44D
:1023F0001928D8B41A28D8B41B28F4E11BD801D066
:102400000400000E156A146AC7EC18F00009D8B46D
:102410001200180609D8D8B41928D8B41A28D8B484
:102420001B28D8B41200ECD7000E195A1A5A1B5A9E
:1024300018281200186819681A6A1B6A1200E8CF77
:1024400028F0236A020E226E266A276A2B6A2C6AFB
:10245000296A2A6A13D02B50030D2850F3249BECD1
:1024600015F02924D96EDA6A2650240FE16EE26A4B
:10247000DFCFE7FF264A272A294A2A2A2B50030DB5
:102480002850F324D96EDA6AD92ADA6ADF501F6E2F
:102490001FC020F0216A2050295C21502A58DBE31C
:1024A0002B4A2C2A020E2B5C000E2C58D1E322C0A2
:1024B00019F0240EF9EF16F00400445014E0446AB9
:1024C00033C014F034C015F035C016F036C017F024
:1024D0000001900E44EC0BF0900E87EC06F000012A
:1024E000900E36EC17F082EC1AF000091FE041EC78
:1024F00009F020EE81F00F0EEECFDEFFE82EFCD7C4
:1025000004000001810EBAEC19F00009D8B41200E1
:10251000810E11EC18F0030AD8A41200810EB9EC58
:1025200016F00009D8A4F3EC19F0120069EF1AF0C4
:10253000E8CF1CF0000E1410186E000E1510196E66
:10254000000E16101A6E020E17101B6E1C50D96E5C
:10255000DA6A18C0DEFF19C0DEFF1AC0DEFF1BC03A
:10256000DDFFD906D9061C50D96EDA6A0E0ED926BF
:10257000DA6A010EDF121C50D96EDA6A0C0ED92607
:10258000DA6A020EDF6E1C50D96EDA6A040ED926A2
:10259000DA6A46C0DFFF1C50D96EDA6A050ED9260A
:1025A000DA6A7EC0DFFF1200DA51D8B4120033C0FD
:1025B00024F034C025F035C026F036C027F062EC98
:1025C00011F033C024F034C025F035C026F036C0F9
:1025D00027F062EC11F033C024F034C025F035C090
:1025E00026F036C027F062EC11F09FEC1AF00001E3
:1025F0009F0EA3EC14F033C014F034C015F035C0B6
:1026000016F036C017F09F0E186E900ECDEC0CF041
:102610009DEC1AF0DA6B1200E8CF1FF0206A216AF5
:1026200019D02050030D1B50F324D96EDA6ADF5005
:102630001C6E1F508EEC17F01C180AE11F5035EC71
:102640001AF01E0A05E12050030D1B5014D8DF6A52
:10265000204A212A1A50D96EDA6AD92ADA6ADF505A
:102660001C6E1CC01DF01E6A1D50205C1E5021589F
:10267000D8B01200D6D7F324D96EDA6A020ED92662
:10268000DA6A1200F8EC17F018C01AF019C01BF043
:1026900042EC18F018C01CF019C01DF0D0CF7EF02D
:1026A0001A4A1B2AD0B612D01C4A1D2A156A070ED8
:1026B000146E1CC016F054EC17F0156A060E146E5A
:1026C0001D50166E54EC17F0010E03D0030ED0A867
:1026D000020E466E156A050E146E1AC016F054EC02
:1026E00017F0156A040E146E1B50166E54EF17F097
:1026F000E8CF1BF01B50D96EDA6ADE6AF80EDE6E88
:102700003F0EDE6EDD6A14C016F07F0E161616C080
:1027100017F0186A196A1A6A040ED8901736183614
:1027200019361A36E82EF9D71B50D96EDA6A1750C7
:10273000DE121850DE121950DE121A50DD121B5034
:10274000D96EDA6A15500F0BDE12000EDE12DE12A1
:10275000DD12DD52DD52000CE8CF1CF0000E14102B
:10276000186E000E1510196E000E16101A6E080E57
:1027700017101B6E1C50D96EDA6A18C0DEFF19C024
:10278000DEFF1AC0DEFF1BC0DDFFD906D9061C50D4
:10279000D96EDA6A0E0ED926DA6A010EDF121C50E3
:1027A000D96EDA6A040ED926DA6ADF681C50D96E4F
:1027B000DA6A0C0ED926DA6A010EDF6E010CE8CF58
:1027C00006F01BD00D01FC9912000D01FC971200C0
:1027D0000D01FC9512000D01FA9512000D01FA97FA
:1027E00012000D01FA9912000D01FA9B12000D0161
:1027F000FA9D12000D01FA9F12000650030AE8E04C
:10280000070AE3E0010ADEE0170AE5E0010AE6E074
:10281000070AE7E0010AE8E0030AE9E0010AD8A4B0
:102820001200E8D71C6A1E6A1E503B0FD96EDA6A86
:10283000DF501B6E1E5015EC1AF01B1803E0010E42
:102840001C6E03D01E2A1E50EFE01C501BE0802B94
:10285000DC0E8065DC0C806B1F6A1F5015EC1AF0D3
:102860001D6E1F503B0FD96EDA6ADF501D1805E050
:102870001DC019F01F5061EC19F01F2A1F50D8A479
:102880001200EBD7806B1200E8CF18F0196A1A6AB1
:102890001AD018509BEC15F01924D96EDA6A195029
:1028A000030D1450F324E16EE26ADFCFE7FF195005
:1028B000030D1450F324D96EDA6AD92ADA6A40C0BB
:1028C000DFFF194A1A2A1850D96EDA6AD92ADA6A49
:1028D000DF50156E15C016F0176A1650195C1750A8
:1028E0001A58D8B01200D5D7E8CF17F01A6A1B6A69
:1028F000186A196A0ED01A50030D1750F3249BEC76
:1029000015F01824D96EDA6ADF5001E1000C184A7C
:10291000192A1A50030D1750F324D96EDA6AD92AEE
:10292000DA6ADF50146E14C015F0166A1550185C80
:1029300016501958E0E31A4A1B2A020E1A5C000EC0
:102940001B58D6E3010CE8CF17F01A6A1B6A186A05
:10295000196A0CD01A50030D1750F3249BEC15F094
:102960001824D96EDA6ADF6A184A192A1A50030D38
:102970001750F324D96EDA6AD92ADA6ADF50146E56
:1029800014C015F0166A1550185C16501958E2E379
:102990001A4A1B2A020E1A5C000E1B58D8B01200ED
:1029A000D6D7E8CF18F0196A1A6A17D018509BECDE
:1029B00015F01924D96EDA6A1950030D1450F32456
:1029C000E16EE26ADFCFE7FF1950030D14503BECD4
:1029D00013F0010EDF6E194A1A2A1850D96EDA6AFE
:1029E000D92ADA6ADF50156E15C016F0176A16502C
:1029F000195C17501A58D8B01200D8D7E8CF27F072
:102A0000DD6704D08CEC1AF0000906E0A50E146E08
:102A1000255044EC14F0DD6B26501AE0DC51800A9E
:102A20007F0F09E3712B030E716505D0716BDC0715
:102A30007F51FFEC19F012EC14F025C01CF00001DE
:102A4000A50E1D6E27507AEC0FF0000901E0010C75
:102A5000000C3A50391825E0392A1D0E396401D08E
:102A6000396A0A6A39500E0DF40EF324066E020E0E
:102A7000F420076E0A500624D96E000E0720DA6E85
:102A80000A50086E096A600E0824E16E0F0E0920D4
:102A9000E26EDFCFE7FF0A2A0D0E0A64E3D76086F5
:102AA000000C010C00010203040506080A0F1419AA
:102AB0001E23282D32373C41464B50555A5F6469DE
:102AC0006E73787D82878C91969BA0A5AAAFB4B9CE
:102AD000BEC3C8CDD2D7DCE1E6EBF0F5FAFF0000CB
:102AE00000000000000000000000000000000000E6
:102AF00000000000E8CF18F0196A1A6A0CD01850CC
:102B00001AD81924D96EDA6A1450DF6202D019502B
:102B10001200194A1A2A1850D96EDA6AD92ADA6AC2
:102B2000DF50156E15C016F0176A1650195C175055
:102B30001A58E5E3FF0CD96EDA6A020ED926DA6A72
:102B4000DF501200382A1D0E386401D0386A0A6A34
:102B50000A50066E076A600E0624D96E0F0E072013
:102B6000DA6E38500E0D500EF324086E010EF4206C
:102B7000096E0A500824E16E000E0920E26EDFCFD4
:102B8000E7FF0A2A0D0E0A64E3D7609E0D0CE8CF1A
:102B90002BF02B5011EC18F02A6E17D02B50B9ECFB
:102BA00016F00009D8A491EC1AF012002B50B9ECE1
:102BB00016F00009D8A454EC16F02B502AEC18F0AB
:102BC0000009D8A454EC16F012002A50010AE6E0DD
:102BD000030AD8A41200EAD7E8CF27F0DE6704D0B2
:102BE0008CEC1AF0000906E0A80E146E2550D1EC0A
:102BF00014F0DE6B265013E025C01CF0A80E1D6EED
:102C0000275081EC0EF0000903E062EC1AF0010C91
:102C100025C01CF0275026EC0EF00009F8E1000C4E
:102C2000E8CF18F0196A1A6A0DD018509BEC15F00D
:102C30001924D96EDA6A1450DF6202D019501200DA
:102C4000194A1A2A1850D96EDA6AD92ADA6ADF5074
:102C5000156E15C016F0176A1650195C17501A58E1
:102C6000E4E3FF0CE8CF14F0156A166A1550CE0F96
:102C700012D8DFCFE7FF1550D00F0DD8E12AE26A56
:102C8000DFCFE7FF154A162A020E155C000E165814
:102C9000D8B01200EBD7D96EDA6A1550030D145074
:102CA000F324E16EE26A1200156A146A010E166ED0
:102CB00054EC17F0196A1A6A0400100E1924146EE5
:102CC000000E1A20156E000E166A54EC17F0194A01
:102CD0001A2A1A50800A800F400ED8B4195CECE30F
:102CE000010E4C6E0001DA6F69EF1AF0E8CF16F0B2
:102CF000176A186A1750030DF350600FD96EDA6A1D
:102D00001650DF620BD01750030DF350610FD96ED0
:102D1000DA6ADECF14F0DDCF15F01200174A182A58
:102D2000020E175C000E1858E5E3146A156A1200CB
:102D3000186A196A1A6A1B6A11D01C6A1D6A1C4A31
:102D40001D2A1D50800A7E0F6C0ED8B41C5CF7E360
:102D50000400182A000E19221A221B221450185C93
:102D60001550195816501A5817501B58D8B0120041
:102D7000E4D7E8CF29F02950D96EDA6AFF0EDE14C5
:102D8000256EFF0EDE14266EFF0EDE14276E000E7B
:102D9000DE14286E9DEC10F028501B1808E1275017
:102DA0001A1805E12650191802E12550181801E1FA
:102DB000010C000CE8CF1BF01C6A1D6A10D0040047
:102DC0001B501C24D96EDA6A100E1C24146E000EDF
:102DD0001D20156EC7EC18F0DF6E1C4A1D2A18C0A6
:102DE00019F01A6A19501C5C1A501D58D8B01200FC
:102DF000E6D7E8CF1CF01D6A1E6A10D0100E1D2405
:102E0000146E000E1E20156E1C501D24D96EDA6A39
:102E1000DF50166E54EC17F01D4A1E2A19C01AF026
:102E20001B6A1A501D5C1B501E58D8B01200E6D702
:102E3000E8CF18F01F0E6F1618506F12146815683F
:102E4000080E166E176A040006D00400FF0E140662
:102E50001522162217226E50E00B181805E01750A5
:102E6000141015101610F1E104001200E8CF14F050
:102E70001450D96EDA6ADE6ADE6ADE6ADD6A0DD85F
:102E8000010EDF121450D96EDA6A0C0ED926DA6AF6
:102E9000DF6A03D8FD0EDF16FD0C1450D96EDA6A16
:102EA0000E0ED926DA6A1200176818681550AA6E35
:102EB00014C0A9FF16C0A8FFF29E040EA66E550E00
:102EC000A76EAA0EA76EA682F28E01D00400A6A25B
:102ED00012001706D8A018061728D8B41828D8B496
:102EE0001200F4D7186A18503B0FD96EDA6A000E38
:102EF0001824146E156A010E1522C7EC18F0DF6E47
:102F000018503B0FD96EDA6ADF50146E185003EC7C
:102F100019F0182A1850D8A41200E5D7E8CF18F0F5
:102F20001850D96EDA6ADECF14F0DECF15F0DECF9E
:102F300016F0DECF17F0100E05D0D89017321632EB
:102F400015321432E82EF9D714507F0B196E195030
:102F50001200E8CF18F01850D96EDA6ADECF14F0FC
:102F6000DECF15F0DECF16F0DECF17F00C0E05D059
:102F7000D8901732163215321432E82EF9D7145081
:102F80000F0B196E19501200E8CF15F0166A176A68
:102F90001650030D1550F324D96EDA6A1450DF620F
:102FA00005D01650030D1550F3241200164A172AA7
:102FB000020E165C000E1758EBE3000C1A6A1A504A
:102FC00015EC1AF0196E000E1A24146E156A010E13
:102FD000152219C016F054EC17F01A503B0FD96E99
:102FE000DA6A19C0DFFF1A2A1A50D8A41200E7D7EC
:102FF0000001D229D8B4D3290FE1156A040E146E4A
:10300000C7EC18F00001D36FD26B156A050E146E71
:10301000C7EC18F00001D213D2C018F0D3C019F0D9
:103020001200E8CF18F01850D96EDA6ADECF14F02B
:10303000DECF15F0DECF16F0DECF17F0190E05D07B
:10304000D8901732163215321432E82EF9D71450B0
:103050000F0B1200E8CF18F01850D96EDA6AFF0E85
:10306000DE14146EFF0EDE14156EFF0EDE14166EE7
:10307000000EDE14176E175014101510161001E113
:10308000010C000CD629D8B4D7290FE1156A060E19
:10309000146EC7EC18F00001D76FD66B156A070ED7
:1030A000146EC7EC18F00001D613D6C018F0D7C0C4
:1030B00019F01200E8CF16F04850030DF35000014C
:1030C000600FD96EDA6A16C0DFFF4850030DF35067
:1030D000610FD96EDA6A14C0DEFF15C0DDFF482A21
:1030E000120060CE74F070CE75F074CF3EF040CF19
:1030F00079F030CF7AF020CF7BF075CF78F076CFB3
:103100007DF0FCCD7CF0FACD76F0DCEF18F0E8CF66
:1031100016F04950030DF350660FD96EDA6A16C0E7
:10312000DFFF4950030DF350670FD96EDA6A14C000
:10313000DEFF15C0DDFF492A12000D01FCB502D0EB
:10314000FC85030CFCB702D0FC87040CFCB902D050
:10315000FC89050CFABD02D0FA8D160CFABF000CE2
:10316000FA8F170CE8CF15F0155097EC19F0146E84
:103170001550450FD96EDA6ADF50141807E0155064
:10318000450FD96EDA6A14C0DFFF010C000C166817
:10319000176801D00400A6A207D01606D8A017060B
:1031A0001628D8B41728F6E11550AA6E14C0A9FF46
:1031B000010EA66EA8501200A5EC1AF087EC1AF0CA
:1031C000040094EC1AF00400DFEC10F0DFEC10F0D7
:1031D000DFEC10F0DFEC10F0DFEC10F00400120078
:1031E000E8CF14F01450D96EDA6A0C0ED926DA6AD8
:1031F000DF5008E01450D96EDA6A040ED926DA6A74
:10320000DF501200000CE8CF15F0156612001450C4
:1032100003E108D08A8812001550D8A41200FAD70A
:103220008A9812001550D8A41200FAD7E8CF14F0EB
:103230001450D96EDA6A0C0ED926DA6A010EDF64F0
:10324000FF0C1450D96EDA6A050ED926DA6ADF50FF
:103250001200E8CF14F01450D96EDA6A0C0ED92699
:10326000DA6A010EDF64FF0C1450D96EDA6A050EBB
:10327000D926DA6ADF50120033C014F034C015F0DA
:1032800035C016F036C017F00001900E98EC12F021
:10329000900E87EC06F00001900E36EF17F0E8CFA5
:1032A00015F01550D96EDA6A050ED926DA6A14C0FF
:1032B000DFFF1550D96EDA6A0C0ED926DA6ADF2ADA
:1032C0001200E8CF1AF01A503B0FD96EDA6A19C013
:1032D000DFFF000E1A24146E156A010E152219C0A4
:1032E00016F054EF17F0E8CF15F01550D96EDA6AE2
:1032F000050ED926DA6A14C0DFFF1550D96EDA6AD6
:103300000C0ED926DA6ADF2A1200E8CF15F0155024
:10331000D96EDA6A040ED926DA6A14C0DFFF1550B6
:10332000D96EDA6A0C0ED926DA6ADF2A120080B06A
:103330004B6608D0010E4B6E4A5002E04A6A02D03A
:10334000010E4A6E80B003D04B04D8B44B6A4A5089
:1033500012006EB4050C6E50060B01E0040C6EB644
:10336000030C6E50160B01E0160C6E50170B01E0AB
:10337000170C000CE8CF18F01850D96EDA6ADECFBF
:1033800014F0DECF15F0DECF16F0DECF17F017B851
:10339000010C000C146A1450450FD96EDA6A1450EF
:1033A00097EC19F0DF6E142A1450D8A41200F3D74A
:1033B0000F0EC11293988A98460403E04650020A01
:1033C00002E172EF17F08A98DEEF17F0156A146ABF
:1033D000020E166E54EC17F00400020E4C6E000143
:1033E000706FA9EF1AF002D054EF16F00001DB5114
:1033F000010AFAE0030AD8A41200E6EF19F0E8CFB8
:1034000014F014661200400402E1406A1200010E3A
:10341000406E010C000E156A146AC7EC18F0186EA5
:103420001850020A01E1010C000CE8CF14F01466F8
:10343000FF0C03D08AB8010C000C1450FBE0FF0C09
:103440007800000003020101FFFFFAFFFFFF020105
:1034500001FFFF010100000E156A146AC7EC18F0A5
:10346000186E180401E1010C000CE8CF14F01450A0
:10347000D96EDA6A050ED926DA6ADF501200000E1C
:10348000B2EC18F00009D8B41200000EFFEF19F0EA
:103490004C50040AD8B412004CC0DBF0040E4C6E41
:1034A000040CF00ECE6ECF68CD9ECD98CD9ACD8017
:1034B0009F901200FF0E15681468166854EC17F000
:1034C000FF001200780ECA6F000ECB6FCC6FCD6F6D
:1034D000000C3F6602D0CAEC19F0010E3F6E010CE1
:1034E000E8CF14F0145001E1010C000CE8CF14F007
:1034F000145001E1010C000C0F0EC112F19E9280DC
:1035000092920F0C3850371801E0010C000C0D019D
:10351000FC6BFA9DFA9F1200705102E07007010CDB
:10352000000C030E4C6E030C010E2AEF0FF0000E80
:103530002AEF0FF0432A430412009D801200436AD1
:1035400012004C5012009D9012006F8812003F50E4
:0A35500012003F6A12001200FF0093
:020000040030CA
:0600010006080E008091CC
:00000001FF
